:0200000480007A
:10000000130E1000DB0100006394014A130E200060
:100010003702020313021230B7000101938010204F
:100020003701010213010110DB8120006392414876
:10003000130E30003702FFF31302C2DF9300F0FF0C
:100040003701030413011120DB8120006392414634
:10005000130E4000DB010002639C0144130E5000AC
:100060003702060113024270370104021301816056
:10007000B700020193804030DB011102639A4142D4
:10008000130E600037525555130252551301F0FFFD
:1000900093000000DB812002639C4140130E70003E
:1000A000DB01000463960140130E8000370200015B
:1000B000130242203701040213018160B7000201DC
:1000C00093804030DB0111046394413E130E900095
:1000D00037020304130212201301F0FFB7000304D8
:1000E00093801020DB8120046394413C130EA00018
:1000F000DB010006639E013A130EB00037020202D4
:10010000130282203701040213018160B70002014B
:1001100093804030DB011106639C4138130EC00010
:100120001302F0EF1301F0FFB700030493801020D7
:10013000DB812006639E4136130ED000DB010008F0
:1001400063980136130EE0003702020213022210F8
:100150003701010213012110B70002019380001042
:10016000DB01110863964134130EF0001302F0FF17
:100170001301F0FFB700030493801020DB812008F7
:1001800063984132130E0001DB01000A63920132D1
:10019000130E1001370204011302427037010402EA
:1001A00013018160B700020193804030DB01110A26
:1001B00063904130130E2001370203041302123002
:1001C0001301F0FFB700030493801020DB81200AA5
:1001D0006390412E130E3001DB01000C639A012C59
:1001E000130E400137525551130242451301F0FFDF
:1001F000B700030493801020DB81200C639A412A0E
:10020000130E5001375251501302021537F1F0F01E
:100210001301010FB700030493801020DB81200C31
:1002200063984128130E6001DB01000E63920128E0
:10023000130E7001370200F41302C2CF1301F0FF56
:10024000B700030493801020DB81200E63924126C7
:10025000130E800137F2F3F01302023F37F1F0F092
:100260001301010FB700030493801020DB81200EDF
:1002700063904124130E9001DB010080639A0122F8
:10028000130EA00113020000B7000201938040305A
:1002900013010000DB812080639C4120130EB0011C
:1002A0001302A000B700020193804030370104021E
:1002B00013018160DB812080639C411E130EC0010D
:1002C00013022001B70000019380F0FF3701010005
:1002D00013013120DB011180639C411C130ED001FE
:1002E000130200099300F0FF1301F0FFDB011180FE
:1002F0006390411C130EE001DB010082639A011A36
:10030000130EF00113020000B70002019380403089
:1003100013010000DB812082639C4118130E000250
:100320001302E0FFB700020193804030370104025E
:1003300013018160DB812082639C4116130E100241
:10034000130220009300F0FF370101001301312058
:10035000DB011182639E4114130E2002130200017F
:100360009300F0FF1301F0FFDB011182639241144F
:10037000130E300293010000DB010084639A011226
:10038000130E40029301000013020000B7000201A7
:100390009380403013010000DB812084639A411078
:1003A000130E5002B7012300370223001302A200EC
:1003B000B7000201938040303701040213018160CD
:1003C000DB8120846396410E130E6002B70100FFAB
:1003D000370200FF13022201B70000019380F0FFF3
:1003E0003701010013013120DB0111846392410CBC
:1003F000130E7002B701FFFF3702FFFF130202095D
:100400009300F0FF1301F0FFDB0111846392410AB6
:10041000130E800293010000DB010086639A01083D
:10042000130E9002B70100FF370200FFB700020170
:100430009380403013010000DB812086639A4106DF
:10044000130EA002B70100FF370200FF1302E2FF04
:10045000B70002019380403037010402130181602C
:10046000DB81208663964104130EB002B70100FFC2
:10047000370200FF130222009300F0FF3701010052
:1004800013013120DB01118663944102130EC00277
:10049000B701FFFF3702FFFF130202019300F0FFD5
:1004A0001301F0FFDB011186639441006F0000012E
:1004B000370110F0130141F22320C101370110F080
:1004C000130101F2232001001300000013000000BB
:1004D00013000000130000001300000013000000D0
:040000058000000077
:00000001FF
