:0200000480007A
:10000000130E100013020000DB4100826392011AFC
:10001000130E200013020000DB410084639A0118D4
:10002000130E300013020000DB41008663920118BA
:10003000130E4000B7C0DCFE938080A93741230136
:10004000130171563722019813025234DBC120820A
:1000500063904116130E5000B7C0DCFE938080A958
:100060003741230113017156370298BA1302321235
:10007000DBC12084639E4112130E6000B7C0DCFE1A
:10008000938080A9374123011301715637A2BADC4E
:1000900013021280DBC12086639C4110130E700096
:1000A00093010000DB41008863940110130E80006F
:1000B000B741230193817156B7C0DCFE938080A9BC
:1000C000130110003722019813025234DBC120883B
:1000D0006390410E130E9000B74123019381715636
:1000E000B7C0DCFE938080A913012000370298BAC4
:1000F00013023212DBC12088639C410A130EA00058
:10010000B741230193817156B7C0DCFE938080A96B
:100110001301300037A2BADC13021280DBC1208841
:1001200063984108130EB00093010000DB41008A80
:1001300063900108130EC000B741230193817156EB
:10014000B7C0DCFE938080A913011000370298BA73
:1001500013023212DBC1208A639C4104130ED000CB
:10016000B741230193817156B7C0DCFE938080A90B
:10017000130120003742230113027256DBC1208A8B
:1001800063984102130EE000B74123019381715639
:10019000B7C0DCFE938080A913013000370298BA03
:1001A00013023212DBC1208A639441006F00000108
:1001B000370110F0130141F22320C101370110F083
:1001C000130101F2232001001300000013000000BE
:1001D00013000000130000001300000013000000D3
:040000058000000077
:00000001FF
