:0200000480007A
:10000000130E1000DB310000639C014A130E200028
:10001000371206031302C290B700020193804030EA
:100020003701040213018160DBB12000639A41486B
:10003000130E300037020204130202209300F0FF77
:100040003701030413011120DBB12000639A4146FC
:10005000130E4000DB31000263940146130E500082
:10006000370202011302423037010402130181609A
:10007000B700020193804030DB31110263924144AA
:10008000130E600037020404130222201301F0FF54
:10009000B700030493801020DBB120026392414239
:1000A000130E7000DB310004639C0140130E8000CE
:1000B000370202011302423037010402130181604A
:1000C000B700020193804030DB311104639A413E56
:1000D000130E900037020304130212201301F0FFE5
:1000E000B700030493801020DBB12004639A413CE5
:1000F000130EA000DB3100066394013C130EB00028
:1001000037020201130242303701040213018160F9
:10011000B700020193804030DB3111066392413A0F
:10012000130EC0001302F0FF1301F0FFB700030429
:1001300093801020DBB1200663944138130ED00069
:10014000DB310008639E0136130EE0003702040223
:10015000130282603701040213018160B7000201BB
:1001600093804030DB311108639C4134130EF00062
:100170001302F0FF1301F0FFB70003049380102077
:10018000DBB12008639E4132130E0001DB31000A0F
:1001900063980132130E10013702040213028260C9
:1001A0003701040213018160B700020193804030DF
:1001B000DB31110A63964130130E2001370203042C
:1001C000130212201301F0FFB700030493801020E4
:1001D000DBB1200A6396412E130E3001DB31000C97
:1001E0006390012E130E4001370201021302021028
:1001F0001301F0FFB700030493801020DBB1200C43
:100200006390412C130E50013782797A1302829742
:1002100037F1F0F01301010FB700030493801020B1
:10022000DBB1200C639E4128130E6001DB31000E10
:1002300063980128130E70013702010213020210A5
:100240001301F0FFB700030493801020DBB1200EF0
:1002500063984126130E800137027AFA13028297BF
:1002600037F1F0F01301010FB70003049380102061
:10027000DBB1200E63964124130E9001DB31008028
:1002800063900124130EA00113020000B7000201C5
:100290009380403013010000DBB120806392412243
:1002A000130EB0013742000013020206B70002012C
:1002B000938040303701100013010101DBB1208031
:1002C00063904120130EC0011302A05FB700FF002E
:1002D0009380F00F3701010013015100DB311180D1
:1002E0006390411E130ED0013702FCFF130222005F
:1002F0009300F0FF1301F0FFDB3111806392411C8A
:10030000130EE001DB310082639C011A130EF00131
:1003100013020000B7000201938040301301000077
:10032000DBB12082639E4118130E000237420000A9
:1003300013020206B700020193804030370110001B
:1003400013010101DBB12082639C4116130E1002E0
:100350001302C0FF9300F0FF3701010013013100C9
:10036000DB311182639E4114130E20021302200020
:100370009300F0FF1301F0FFDB311182639241140F
:10038000130E300293010000DB310084639A0112E6
:10039000130E40029301000013020000B700020197
:1003A0009380403013010000DBB12084639A411038
:1003B000130E5002B7012300374223001302020636
:1003C000B700020193804030370110001301010192
:1003D000DBB120846396410E130E6002B70100FF6B
:1003E000370200FF1302A25FB700FF009380F00FF7
:1003F0003701010013015100DB3111846392410C7C
:10040000130E7002B70100FF3702FCFE1302220038
:100410009300F0FF1301F0FFDB3111846392410A76
:10042000130E800293010000DB310086639A0108FD
:10043000130E9002B70100FF370200FFB700020160
:100440009380403013010000DBB12086639A41069F
:10045000130EA002B70100FF374200FF130202068D
:10046000B7000201938040303701100013010101F1
:10047000DBB1208663964104130EB002B70100FF82
:10048000370200FF1302A2FF9300F0FF37010100C3
:1004900013015100DB31118663944102130EC00237
:1004A000B701FFFF3702FFFF130222009300F0FFA6
:1004B0001301F0FFDB311186639441006F000001EE
:1004C000370110F0130141F22320C101370110F070
:1004D000130101F2232001001300000013000000AB
:1004E00013000000130000001300000013000000C0
:040000058000000077
:00000001FF
