:0200000480007A
:10000000370100801301010BE7000100130000001D
:1000100000000000000000000000000000000000E0
:10002000232E11FE232C51FE232A61FE232871FE6C
:100030002326A1FE2324B1FE2322C1FE2320D1FECC
:10004000232EE1FC232CF1FC232A01FD232811FDA2
:100050002326C1FD2324D1FD2322E1FD2320F1FD30
:10006000130101FCEF3090358320C103832281030B
:1000700003234103832301030325C1028325810256
:1000800003264102832601020327C1018327810140
:100090000328410183280101032EC100832E810022
:1000A000032F4100832F010013010104730020304E
:1000B000972100009381815F17110000130181488F
:1000C00017250000130505DF938501836308B5003C
:1000D00023200500130545006FF05FFF1775000032
:1000E000130585091301C1FF977500009385C508A5
:1000F000630EB50083260500130545002320A100EB
:10010000E7800600032501006FF01FFE1301410088
:10011000371500001305058873104530372500009A
:100120001305858073100530EF6040636F00000099
:080130000000000000000000C7
:10154000366B20706572666F726D616E63652072B6
:10155000756E20706172616D657465727320666F5F
:101560007220636F72656D61726B2E0A000000005D
:10157000366B2076616C69646174696F6E20727578
:101580006E20706172616D657465727320666F7232
:1015900020636F72656D61726B2E0A0050726F6608
:1015A000696C652067656E65726174696F6E207223
:1015B000756E20706172616D657465727320666FFF
:1015C0007220636F72656D61726B2E0A00000000FD
:1015D000324B20706572666F726D616E636520724A
:1015E000756E20706172616D657465727320666FCF
:1015F0007220636F72656D61726B2E0A00000000CD
:10160000324B2076616C69646174696F6E2072750B
:101610006E20706172616D657465727320666F72A1
:1016200020636F72656D61726B2E0A005B25755DBC
:101630004552524F5221206C6973742063726320AB
:10164000307825303478202D2073686F756C6420D5
:101650006265203078253034780A00005B25755D9E
:101660004552524F5221206D617472697820637225
:101670006320307825303478202D2073686F756CA6
:1016800064206265203078253034780A000000003C
:101690005B25755D4552524F52212073746174650C
:1016A0002063726320307825303478202D207368D1
:1016B0006F756C64206265203078253034780A00BC
:1016C000436F72654D61726B2053697A65202020EB
:1016D000203A20256C750A00546F74616C2074697F
:1016E000636B732020202020203A20256C750A008F
:1016F000546F74616C2074696D6520287365637321
:10170000293A2025640A0000497465726174696F82
:101710006E732F5365632020203A2025640A000051
:101720004552524F5221204D757374206578656380
:1017300075746520666F72206174206C65617374C6
:10174000203130207365637320666F7220612076CC
:10175000616C696420726573756C74210A00000005
:10176000497465726174696F6E7320202020202097
:10177000203A20256C750A00474343382E332E301B
:1017800000000000436F6D70696C657220766572B1
:1017900073696F6E203A2025730A00002D3E206485
:1017A000656661756C742C20736565206D616B6571
:1017B00066696C6500000000436F6D70696C65724E
:1017C00020666C6167732020203A2025730A000090
:1017D000535441434B0000004D656D6F7279206C8E
:1017E0006F636174696F6E20203A2025730A0000D0
:1017F00073656564637263202020202020202020F0
:10180000203A203078253034780A00005B25645D6A
:101810006372636C697374202020202020203A209A
:101820003078253034780A005B25645D6372636D1F
:10183000617472697820202020203A203078253089
:1018400034780A005B25645D637263737461746548
:101850002020202020203A203078253034780A00BB
:101860005B25645D63726366696E616C2020202075
:1018700020203A203078253034780A00436F727285
:10188000656374206F7065726174696F6E20766134
:101890006C6964617465642E20536565205245410E
:1018A000444D452E6D6420666F722072756E206106
:1018B0006E64207265706F7274696E672072756CE9
:1018C00065732E0A000000004572726F7273206407
:1018D000657465637465640A0000000043616E6EA0
:1018E0006F742076616C6964617465206F706572D5
:1018F0006174696F6E20666F72207468657365200D
:10190000736565642076616C7565732C20706C65F9
:1019100061736520636F6D706172652077697468AB
:1019200020726573756C7473206F6E2061206B6E0E
:101930006F776E20706C6174666F726D2E0A000096
:1019400053746174696300004865617000000000B1
:10195000537461636B000000566578526973637657
:101960003A2050726F636573736F722072756E6E7A
:10197000696E67206174202575204D487A0A000041
:1019800056657852697363763A2045786563757455
:10199000696E6720636F72656D61726B20284E758A
:1019A0006D626572206F6620697465726174696F1B
:1019B0006E732064796E616D6963616C6C7920630C
:1019C000616C63756C61746564292E205468697359
:1019D000206D61792074616B6520736F6D65207473
:1019E000696D652E2E2E0A0A000000000A566578E1
:1019F00052697363563A20416C6C207265706F7245
:101A0000746564206E756D62657273206F6E6C799B
:101A10002073686F772074686520696E74656765E8
:101A20007220706172742E0A0A000000383C008037
:101A3000383C0080E83C0080E83C00800C3D0080A1
:101A4000101B0080181B0080201B0080281B0080BA
:101A5000E01A0080EC1A0080F81A0080041B008055
:101A6000B01A0080BC1A0080C81A0080D41A008006
:101A7000801A00808C1A0080981A0080A41A0080B6
:101A800054302E33652D3146000000002D542E5465
:101A90002B2B5471000000003154332E3465347AFE
:101AA0000000000033342E30652D545E000000002D
:101AB000352E353030652B33000000002D2E3132AD
:101AC00033652D32000000002D3837652B38333256
:101AD000000000002B302E36652D31320000000052
:101AE00033352E3534343030000000002E3132339F
:101AF00034353030000000002D3131302E37303099
:101B0000000000002B302E3634343030000000004E
:101B10003530313200000000313233340000000033
:101B20002D383734000000002B3132320000000025
:101B3000B44200809042008098420080A042008021
:101B4000AC42008084420080845300800C530080AB
:101B50000C530080785300800C5300800C5300809D
:101B60000C5300800C5300800C5300800C530080F9
:101B70000C5300806C5300800C5300806053008035
:101B80000C5300800C530080F05200806C5B00808E
:101B9000145600801456008014560080145600809D
:101BA000145600801456008014560080145600808D
:101BB000145600801456008014560080145600807D
:101BC000145600801456008014560080145600806D
:101BD000145600801456008014560080145600805D
:101BE0001456008014560080405400801456008023
:101BF000145600801456008014560080145600803D
:101C00001456008014560080145600803C58008002
:101C100014560080CC550080505B00801456008024
:101C2000145600801456008014560080505B0080CB
:101C300014560080145600801456008014560080FC
:101C400014560080C05500809C55008014560080BA
:101C50001456008088540080145600807C54008004
:101C6000145600801456008030580080BC56008006
:101C70001C5600801C5600801C5600801C5600809C
:101C80001C5600801C5600801C5600801C5600808C
:101C90001C5600801C5600801C5600801C5600807C
:101CA0001C5600801C5600801C5600801C5600806C
:101CB0001C5600801C5600801C5600801C5600805C
:101CC0001C5600801C560080445400801C56008026
:101CD0001C5600801C5600801C5600801C5600803C
:101CE0001C5600801C5600801C560080185800802E
:101CF0001C560080D0550080A45600801C560080E1
:101D00001C5600801C5600801C560080A456008083
:101D10001C5600801C5600801C5600801C560080FB
:101D20001C560080C4550080A05500801C560080C1
:101D30001C5600808C5400801C560080805400800B
:101D40001C5600801C5600804854008030313233CD
:101D50003435363738396162636465666768696A45
:101D60006B6C6D6E6F707172737475767778797A4B
:101D700000000000303132333435363738394142D3
:101D8000434445464748494A4B4C4D4E4F505152AB
:101D9000535455565758595A000000003C4E554C64
:101DA0004C3E000000010202030303030404040488
:101DB00004040404050505050505050505050505D7
:101DC00005050505060606060606060606060606B7
:101DD00006060606060606060606060606060606A3
:101DE0000606060607070707070707070707070787
:101DF0000707070707070707070707070707070773
:101E00000707070707070707070707070707070762
:101E10000707070707070707070707070707070752
:101E20000707070708080808080808080808080836
:101E30000808080808080808080808080808080822
:101E40000808080808080808080808080808080812
:101E50000808080808080808080808080808080802
:101E600008080808080808080808080808080808F2
:101E700008080808080808080808080808080808E2
:101E800008080808080808080808080808080808D2
:101E900008080808080808080808080808080808C2
:101EA00008080808000000000100000066000000AB
:101ED800130101FE23282101232E1100232C810048
:101EE800232A9100232631010314050093577440D7
:101EF80093F717001379F407639E0704938405008A
:101F08009355344093F5F500939745001377740083
:101F1800B3E5B7009309050083D78403630C07046E
:101F280093061000630AD708131504011355050119
:101F380013090400938507001379F907137404F053
:101F4800EF20004B33648900239CA4021364040827
:101F5800239089008320C10103248101130509000E
:101F680083244101032901018329C10013010102CE
:101F780067800000930620021387050063D4D5000C
:101F880013072002839624000396040083A54401C6
:101F980003A584011377F70FEF20800C83D7E403A0
:101FA800131905011359094163940700239FA402DB
:101FB80083D784036FF01FF8138607001385840204
:101FC800EF10804683D7C40313190501135909413B
:101FD800E39007FE83D78403239EA4026FF09FF546
:101FE800130101FE232A9100232821012324410102
:101FF800232E1100232C8100232631010314050010
:1020080013890500930406009357744093F717004B
:10201800137AF407639C07049355344093F5F5004D
:102028009397450013777400B3E5F500930905000D
:10203800835786036300070C930610006300D714C8
:102048001315040113550501130A040093850700AD
:10205800137AFA07137404F0EF20803933648A0086
:10206800239CA40213640408239089000314090024
:102078009357744093F717009379F407639A07040A
:102088009355344093F5F500939745001377740002
:10209800B3E5F50083D784036300070A93061000AD
:1020A8006302D710131504011355050193090400A1
:1020B8009385070093F9F907137404F0EF20403370
:1020C80033E48900239CA4021364040823108900C4
:1020D8008320C1010324810133053A41832441014E
:1020E800032901018329C100032A81001301010288
:1020F80067800000930620021387050063D4D5008B
:1021080013072002839624000396040083A5440144
:1021180003A584011377F70FEF10907483D7E403B6
:10212800131A0501135A0A4163940700239FA40256
:1021380083D784036FF09FF193062002138705006D
:1021480063D4D50013072002839624000396040065
:1021580083A5440103A584011377F70FEF1050708E
:1021680083D7E4039319050193D9094163940700C0
:10217800239FA40283D784036FF09FF3138607007D
:1021880013858402EF10402A83D7C403131A05016C
:10219800135A0A41E39E07F883D78403239EA402B7
:1021A8006FF0DFEA1386070013858402EF10C0275B
:1021B80083D7C4039319050193D90941E39C07FA0E
:1021C80083D78403239EA4026FF09FEE630A060060
:1021D80003152500839725003305F5406780000027
:1021E8008317050013970701135707011357870033
:1021F80093F707F0B3E7E7002310F500839705008E
:1022080013970701135707011357870093F707F030
:10221800B3E7E7002390F500031525008397250011
:102228003305F54067800000839705002310F5000B
:10223800839725002311F50067800000130101FA38
:10224800232C8103232E1104232C8104232A910497
:10225800232821052326310523244105232251055E
:1022680023206105232E7103232A91032328A10328
:102278002326B10383184500232A0100130C050007
:1022880003244502635810392326B10013060000C1
:10229800130E000013050000130800008327C10077
:1022A8009376F60F232AD10063C8072A630E045ECB
:1022B80003274400938607009307040003172700A9
:1022C800631CD7006F00C00103A747008326C10025
:1022D800031727006306D70083A70700E39607FEC6
:1022E800930600006F00C000930604001304070063
:1022F800032704002320D400E31807FE6388072877
:1023080003A7470013051500131505010317070058
:102318001355050193761700638C060013579740F1
:10232800137717003307E80013180701135808013B
:1023380083A60700638C060003A7060023A0E70016
:102348008327040023A0F6002320D4008327C1009C
:1023580063CA0700138B170093170B0193D7074124
:102368002326F1001306160013160601135606411C
:10237800E396C8F293172500B387C741B307F8005F
:102388009397070193D70701232EF100634CB028D8
:10239800832704009304040003A9070003A7470048
:1023A8008326490023A2D7002322E90003A70700B8
:1023B8000327070023A0E7008327C1002320090083
:1023C80063CE071283A744000327C1008397270021
:1023D800638AE70083A40400E39604FE83240400D0
:1023E80063820402832744008325C1010395070003
:1023F800EF20007983A40400232EA100E39404FEB7
:102408008324040083A74400032749001303100012
:102418002322F90083A7040023A2E4009308000004
:102428002320F90023A02401130E000093040000C8
:10243800130F1000130E1E009306040093070000EC
:1024480083A606009387170063860600E31AF3FE47
:102458009307030013070400130603001384060000
:10246800638C0706630E060A630C040A832547007B
:1024780003254400839605001398060113580801A4
:102488001358880093F606F0B3E606012390D500AA
:1024980083160500831E25001398060113580801AA
:1024A80093F606F013588800B3E606012310D5000A
:1024B80083962500B386D6416354D006930604005C
:1024C800032404001306F6FF6384080223A0D8003F
:1024D80093880600E39807F8630C0604630C040469
:1024E800930604001306F6FF03240400E39008FE95
:1024F80093840600938806006FF0DFFD83A74400ED
:102508000327410183C70700E38EE7EC83A4040097
:10251800E39604FE83240400E39604EC6FF09FEE38
:10252800930607009387F7FF032707006FF0DFF98B
:10253800E31204F023A00800630EEE071313130040
:102548006380042813840400130E0000930800001D
:10255800930400006FF01FEE63080434032744005F
:102568009307040003470700639CE6006FF05FD7FA
:1025780003A747008326410103470700E302D7D694
:1025880083A70700E39607FE6FF09FD503A74600D1
:1025980093071E00139E070103071700135E0E0121
:1025A800137717003307E8001318070113580801B9
:1025B8006FF0DFD903A404006304042E83A744004A
:1025C8008325C10103950700EF20805B03240400E5
:1025D800232EA100E31404FE8320C10503248105F2
:1025E80083244105032901058329C104032A8104A1
:1025F800832A4104032B0104832BC103032C810389
:10260800832C4103032D0103832DC102130101060D
:10261800678000002326B100232E0100E35AB0D6BC
:102628006300041A930710002324F10093078C0217
:10263800232CF100130D04001309000013040000FB
:1026480023280100130A100083270101930D0D00B0
:10265800930B0000938717002328F10083AD0D002A
:10266800938B1B0063860D0083278100E398FBFE94
:10267800832C810063880B0E63880C1063860D1011
:10268800832A4D0083A94D0083940A0093F7040818
:1026980013FBF4076398070493D5344093F5F500CA
:1026A8009397450013F77400B3E5F50083578C033F
:1026B8006306071A630047191395040113550501AA
:1026C800138B040093850700EF109052137BFB07D0
:1026D80093F804F0B3681B01231CAC0293E80808C4
:1026E80023901A01839A090093F70A0893F4FA07CA
:1026F8006398070493D53A4093F5F50093974500FE
:1027080013F77A00B3E5F50083578C036302070ECD
:10271800630C470B13950A011355050193840A00AE
:1027280093850700EF10D04C93F4F40793F80AF060
:10273800B3E81401231CAC0293E80808239019019C
:10274800B3049B406352900493870D0083AD0D0042
:10275800938CFCFF630409022320F9001389070006
:10276800E39C0BF0638A0C02638C0D0293870D00C7
:10277800938CFCFF83AD0D00E31009FE1384070062
:10278800138907006FF0DFFD93070D00938BFBFFA4
:10279800032D0D006FF01FFC138D0D00E3960DEA5D
:1027A800032701012320090093071000E302F7BE65
:1027B80083278100939717002324F100E31C04E684
:1027C80023200000730010000325810113860700F1
:1027D800EF0090458357CC039314050193D404412B
:1027E8006396070483578C03231EAC026FF05FF3D4
:1027F800930620021387050063D4D500130720022F
:1028080083162C0003160C0083254C0103258C012C
:102818001377F70FEF10D0048357EC0393140501D7
:1028280093D4044163940700231FAC0283578C039D
:102838006FF01FEF0325810113860700EF00D03EDC
:102848008357CC03131B0501135B0B4163960704E5
:1028580083578C03231EAC026FF0DFE69306200239
:102868001387050063D4D5001307200283162C00B4
:1028780003160C0083254C0103258C011377F70FF1
:10288800EF10007E8357EC03131B0501135B0B410C
:1028980063940700231FAC0283578C036FF09FE2F9
:1028A8000325C1016FF05FD3832700007300100078
:1028B800130101FF232481001384050093054001BF
:1028C8002320210123261100130906002322910049
:1028D800EF30103E1305E5FF131E3500330EC4011B
:1028E8002322C4012320040023110E0003274400DF
:1028F800B787FFFF93860708131625002310D70014
:10290800130704013306CE009305840013084E0014
:10291800637CC72393068E008324040063FEC622CB
:102928002320B400232494002326040193C7F7FF2F
:102938009305F0FF2312BE002313FE008324040036
:10294800630A0506131F0901B78EFFFF135F0F0106
:102958009305000093CEFEFF9308870063F8C8052F
:10296800138346006374C3041398050113580801C0
:10297800B347E801939737001378780093F78707F0
:1029880023209700B3E707012320E400139887006A
:102998002322D700B367F8002390F6002391D601CD
:1029A8008324040093060300138708009385150009
:1029B800E314B5FA83A70400638A0702930550005D
:1029C800EF30102FB7450000130710009385F5FF6F
:1029D80003A644006370A7122311E60083A4040031
:1029E8001307170083A70400E39407FE930E100053
:1029F800930F100093070400130500001304000050
:102A0800130E0000130E1E00938507001307000025
:102A180083A505001307170063840500E31AD7FF91
:102A28009386070013860E0093870500630C07063C
:102A3800630C0608638A070803A8460083A84700B2
:102A480083150800139305011353030113538300DF
:102A580093F505F0B3E565002310B80083950800E9
:102A6800039F2800139305011353030193F505F001
:102A780013538300B3E565002390B800831528003D
:102A8800B385E5416352B0049385070083A7070027
:102A98001306F6FF630405022320B500138505001D
:102AA800E31807F8630A0602638A0702938507009A
:102AB8001306F6FF83A70700E31005FE138405003D
:102AC800138505006FF0DFFD938506001307F7FFF8
:102AD80083A606006FF01FFCE39607F2232005008B
:102AE8006306FE05939E1E00E31604F023200000F3
:102AF800730010009316070193D6060193871600FA
:102B08009397870093F70770B3C62601B3E7D700FA
:102B1800B3F7B7002311F60083A4040013071700C6
:102B280083A70400E39607EA6FF05FEC130504003F
:102B38008320C1000324810083244100032901006C
:102B48001301010167800000832404009306080034
:102B5800138705006FF0DFDE930608001387050072
:102B68006FF01FDE032806009308880063F6E80468
:102B780003A70600130747006370F7042320160114
:102B8800832705002320F8002320050183A70600DA
:102B9800130508002322F8009387470023A0F600B6
:102BA80003970500832748002390E7000397250033
:102BB8002391E70067800000130800001305080050
:102BC800678000000327050083264500930705005A
:102BD800032647001305070023A2C7002322D700B6
:102BE80083A6070083A6060023A0D700232007009A
:102BF8006780000003A74500832645002322E500DF
:102C080003A7050023A2D5002320E50023A0A500E3
:102C180067800000039725006348070263040502E4
:102C28008327450083972700639AE7006F00000514
:102C380083274500839727006386E700032505005F
:102C4800E31805FE67800000E30E05FE83274500B4
:102C58000397050083C70700639AE7006F004002E7
:102C68008327450083C707006388E700032505001D
:102C7800E31805FE6FF01FFD678000006780000005
:102C88006780000063000502130700006F008000E2
:102C980013850700832705002320E5001307050097
:102CA800E39807FE6780000063040514130101FD23
:102CB800232A51012328610123267101232481013C
:102CC8002320A10123261102232481022322910219
:102CD80023202103232E3101232C4101232291019A
:102CE800130B0500938B0500130C0600930A1000C4
:102CF800130D1000130A0B00930C000013090000B9
:102D0800130B0000938C1C0013040A0093040000AA
:102D1800032404009384140063040400E39A54FF1A
:102D280093890A00638E0402638E0904630C040409
:102D38008325440003254A0013060C00E7800B0096
:102D48006352A00493070400032404009389F9FF45
:102D5800630409022320F90013890700E39604FCA1
:102D6800638A0902630C0402930704009389F9FF3C
:102D780003240400E31009FE138B070013890700DE
:102D88006FF0DFFD93070A009384F4FF032A0A001B
:102D98006FF01FFC130A0400E31604F62320090051
:102DA800638AAC01939A1A00E3160BF423200000FF
:102DB800730010008320C1020324810213050B0055
:102DC80083244102032901028329C101032A8101C5
:102DD800832A4101032B0101832BC100032C8100AD
:102DE800832C4100032D01001301010367800000BB
:102DF8002320000073001000130101FF2324810029
:102E08002322910023261100232021010329C50133
:102E1800232C0502232E0502130405009304000049
:102E2800630009049305100013050400EFF00FC1B7
:102E380083558403EF10C05B231CA4029305F0FFA5
:102E480013050400EFF08FBF83558403EF10405A39
:102E5800231CA4026384040293841400E31499FCE1
:102E68008320C10003248100832441000329010039
:102E7800130500001301010167800000231DA4024F
:102E880093071000E30EF9FC930410006FF09FF90C
:102E9800130101F9232481062326110637F4FFFFC5
:102EA8002322910623202107232E3105232C4105B7
:102EB800232A51052328610523267105232481052A
:102EC800232291052320A105232EB1032322B10239
:102ED8002324C1022328D10033648700630E0550E0
:102EE800B305A0409314150093971500B3099600F5
:102EF80013190701130A07001308050013590901DC
:102F0800232EC100938C070093860900130B000041
:102F180093952500338696019307060003D707008B
:102F2800938727003307E900239FE7FEE398D7FE3E
:102F3800130C1B00B306B64063068801130B0C0084
:102F48006FF05FFD032D4102B30780412326F10294
:102F580013172C00939727002326E100232CA101A7
:102F680023200102232AF100B38D9901930B0D0050
:102F7800938A0D0003950A0093050A00938A2A0094
:102F8800EF30405023A0AB00938B4B00E3943AFF03
:102F98008326C10083270102330DDD00832641010A
:102FA80013871700B389DD40638667012320E10298
:102FB8006FF09FFB832741020327C1001305000020
:102FC80093050000338AE7008327C10293080A00AB
:102FD80013070000130E0000939E3700832741015A
:102FE80033831701130603006F00800113150501D1
:102FF800130646001355054113870600630E160392
:103008008326060013150501135505013327D7003C
:10301800B385D5001308A5003305E500E358B4FCD3
:1030280013150801130646001355054193050000C2
:1030380013870600E31616FD13061E00B308D341D6
:1030480063066E01130E06006FF05FF9930500002A
:10305800EF10103383270101032D810283294102D8
:10306800930D0500338B9700832C010123A00900E1
:10307800930B0D00930A000083950C0003950B0039
:10308800938C2C00938B2B00EF30C03FB38AAA009F
:1030980023A05901E3926CFF93894900330D9D00E9
:1030A800E39449FD032E41021305000013070000B5
:1030B800130600001303000013080E009305000018
:1030C8006F00C001131505019385150013550541BF
:1030D800130848001387060063F085058326080057
:1030E80013150501135505013327D7003306D600FC
:1030F8009308A5003305E500E356C4FC13950801C1
:103108009385150013550541130600001308480060
:1031180013870600E3E485FD8327C100130313002A
:10312800330EFE00E36A83F993850D00EF105025F6
:1031380083274102832981022326A102232AF10041
:1031480023200102832C0101832B4101930A0000F3
:1031580023A00B00138B0C00138A0900130D000029
:10316800930D000083150B0003150A00938D1D00B5
:10317800130A2A00EF300031330DAD0023A0AB0154
:10318800330B9B00E3E08DFF938A1A00938B4B006F
:10319800938C2C00E3EE8AFB83270102032741016D
:1031A8008326C100938717002320F1023307D70035
:1031B800232AE100B3899900E3E687F9032E410247
:1031C8001305000013070000130600001303000096
:1031D80013080E00930500006F00C00113150501C8
:1031E80093851500135505411308480013870600F9
:1031F80063F085058326080013150501135505019D
:103208003327D7003306D6009308A5003305E50019
:10321800E356C4FC13950801938515001355054121
:10322800130600001308480013870600E3E485FD31
:103238008327C10013031300330EFE00E36A83F9EA
:103248008325C102EF10D01383274102032A81028C
:103258002326A102232AF10023200102832C010145
:10326800032B41019309000023200B00938A0C00D3
:10327800930B0A00130D0000930D000083950A00BC
:1032880003950B00938D1D00938B2B00EF30801F4F
:10329800135E25409355554093F5F5071375FE00C9
:1032A800EF30401E330DAD002320AB01B38A9A00E6
:1032B800E3E68DFD93891900130B4B00938C2C00CA
:1032C800E3E489FB83270102032741018326C10028
:1032D800938717002320F1023307D700232AE10040
:1032E800330A9A00E3EC87F7130500001307000080
:1032F8001306000013030000032881019305000052
:103308006F00C0011315050193851500135505417C
:10331800130848001387060063F085058326080014
:1033280013150501135505013327D7003306D600B9
:103338009308A5003305E500E356C4FC139508017E
:10334800938515001355054113060000130848001E
:1033580013870600E3E485FD832781010327C10065
:1033680013031300B387E700232CF100138706002B
:10337800E36483F98325C102EF10900093050000F0
:103388000327C1011306000083560700130727000F
:1033980013061600B3862641231FD7FEE36686FF71
:1033A8008327C10193851500B3879700232EF10069
:1033B800E3E885FD8320C106032481061315050172
:1033C80083244106032901068329C105032A8105AF
:1033D800832A4105032B0105832BC104032C810497
:1033E800832C4104032D0104832DC103135505418A
:1033F800130101076780000093050000EF10407873
:103408009305050013050000EF108077930505006C
:1034180013050000EF10C0769305050013050000A2
:10342800EF1000766FF01FF9130101FF23248100CC
:103438002326110013040600138705008326850040
:103448008325C5000326450003250500EFF05FA48A
:1034580093050400032481008320C10013010101A6
:103468006F100072130101FB23248104232E310302
:1034780023229103232611042322910423202105CA
:10348800232C4103232A5103232861032326710394
:10349800232481032320A103232EB10193090500CE
:1034A800938C06001304100063040600130406003E
:1034B800938BF5FF93FBCBFF93874B002322F100FF
:1034C80093040000639609006F00C0139304090079
:1034D800138914009305090013050900EF20907A59
:1034E80013153500E36435FF938504001385040044
:1034F800EF20507903274100931715002326F10088
:1035080023249100B30BF700638804088327410044
:1035180037090100139C1400938A0B00130A00005A
:10352800930D1000B38977411309F9FF138D0A0031
:10353800130B000093850D0013050400EF20907411
:103548001356F541135606013304C50093970D0130
:103558003374240193D707013304C44033878700A9
:103568001317070113570701B307F7002310ED00DE
:1035780093F7F70F3387A9012310F700130B1B00EC
:10358800938D1D00130D2D00E3669BFA130A1A0094
:10359800B38A8A01E36C9AF88327C10003274100A4
:1035A80023A47C01B387FB009387F7FF93F7C7FF3A
:1035B8009387470023A6FC008327810023A2EC0001
:1035C8001385040023A0FC008320C1040324810484
:1035D80083244104032901048329C103032A8103A5
:1035E800832A4103032B0103832BC102032C81028D
:1035F800832C4102032D0102832DC1011301010512
:10360800678000009307F0FF2324F1009307200050
:10361800938B6B009304F0FF2326F1006FF01FEFEC
:10362800130F050063080508B30EA0409318250082
:10363800B3881501939F2E001303000013050000A3
:103648001307000093050000939E3E00338E1F0170
:1036580093070E006F00800113150501938747003B
:103668001355054113870600638EF80283A60700E9
:1036780013150501135505013327D700B385D50068
:103688001308A5003305E500E358B6FC1315080137
:1036980093874700135505419305000013870600DB
:1036A800E396F8FC13031300B308DE41E3106FFA46
:1036B8006780000013050000678000006308050CA0
:1036C800130101FD2320210323248101131915006F
:1036D800330CA040232E3101232C4101232A510110
:1036E80023267101232291012320A10123261102FF
:1036F800131D1C0023248102232291022328610127
:1037080093890600930B0500931C2500138A050076
:1037180033092601930A0000131C2C00330BA9015E
:1037280093040A0013040B00031504009385090091
:1037380013042400EF20105523A0A4009384440010
:10374800E31489FE938A1A00330A9A0133098B41DC
:10375800E3965BFD8320C102032481028324410296
:10376800032901028329C101032A8101832A410116
:10377800032B0101832BC100032C8100832C410002
:10378800032D01001301010367800000678000001A
:1037980063060504B308A040931615001316060126
:1037A800B386D5001393180013560601930500003D
:1037B800939828003308D3009307080003D707001D
:1037C800938727003307E600239FE7FEE398D7FE99
:1037D80093851500B3061841E31EB5FC6780000009
:1037E800630C050A130101FD23248101131C150034
:1037F80013152500232E3101232C4101232A5101C1
:103808002328610123267101232611022324810222
:103818002322910223202103938B0600938905001C
:10382800930A0600338BA500338A860123A009007A
:1038380013840B0013890A00930400008315040005
:10384800031509001304240013092900EF209043ED
:10385800B384A40023A09900E3128AFE9389490047
:10386800B38A8A01E39469FD8320C102032481029B
:1038780083244102032901028329C101032A81010A
:10388800832A4101032B0101832BC100032C8100F2
:10389800130101036780000067800000630E050EB6
:1038A800130101FB23202105931725001319150087
:1038B800232E3103232A510323286103232671036E
:1038C8002324810323229103232611042324810422
:1038D80023229104232C41032320A103232EB10189
:1038E8002326D100930C0500930A0600B30926018C
:1038F8002324F100938B0500338B2601130C000061
:10390800032AC10093840B0023A00400130D0A00AE
:1039180013840A00930D000083150D00031504009D
:1039280013042400330D2D01EF20D035B38DAD00E5
:1039380023A0B401E39289FE130A2A009384440069
:10394800E3144BFD83278100130C1C00B38A2A0162
:10395800B3892901B38BFB00E3948CFB8320C1045A
:103968000324810483244104032901048329C10316
:10397800032A8103832A4103032B0103832BC102FA
:10398800032C8102832C4102032D0102832DC101E6
:1039980013010105678000006780000063080510B7
:1039A800130101FB2322910493172500931415009A
:1039B80023202105232C4103232A510323286103B3
:1039C800232671032324810323261104232481043D
:1039D800232E3103232291032320A103232EB10197
:1039E8002326D100130C0500130A0600330996009C
:1039F8002324F100138B0500B38A9600930B000073
:103A08008329C10013040B0023200400938C0900B0
:103A1800930D0A00130D000083950C0003950D000B
:103A2800938D2D00B38C9C00EF20D0259356254014
:103A38009355554093F5F50713F5F600EF209024BC
:103A4800330DAD002320A401E318B9FD93892900A3
:103A580013044400E39A3AFB83278100938B1B00ED
:103A6800330A9A0033099900330BFB00E31A7CF9F7
:103A78008320C1040324810483244104032901040D
:103A88008329C103032A8103832A4103032B0103EA
:103A9800832BC102032C8102832C4102032D0102D6
:103AA800832DC101130101056780000067800000B4
:103AB800130500009305000067800000B70702F0B7
:103AC80023A0070437460F0023A407043707010083
:103AD8001306F62323A0C7001306F7FF23A2C70483
:103AE8001307270023A0E70403A78704B72700804C
:103AF80023A207EC23A0E7EC67800000B70702F0D9
:103B080003A78704B727008023AE07EA23ACE7EAB8
:103B180067800000B72700803727008083A587EBE0
:103B2800032507EC83A7C7EB032747EC3385A5409C
:103B3800B3B5A500B387E740B385B74067800000F9
:103B4800130101FF13064006930600002326110007
:103B5800EF2000368320C1001301010167800000B7
:103B6800130101FF23248100130405003725008079
:103B7800930540061305859523261100EF10C05FB5
:103B88003725008013050598EF10005F9307100094
:103B98002300F4008320C1000324810013010101E4
:103BA8006780000023000500372500801305C59EA7
:103BB8006F10805C678000001303F5FF9307100007
:103BC800130E060063FC671493861500939606018E
:103BD80093D6060193F776009387D7FF939707014B
:103BE800B7250080B728008013D736001306400099
:103BF80093D7070113080000938505A49388C8A2EA
:103C0800130F8000930EC002137737006366F60A1D
:103C180093972700B387170183A707001317270077
:103C28003387E50093861600930F98006780070096
:103C3800939606010327070193D6060163FA6F0AD4
:103C48009302800083430700B3070E0123807700A7
:103C580003481700A38007010348270023810701B1
:103C680003483700A38107016384C2020348470061
:103C78002382070103485700A3820701034867000E
:103C8800238307016396E20103477700A383E700D4
:103C9800B38757002380D70193F776009387D7FF20
:103CA8009397070113D7360093D7070113880F009E
:103CB80013773700E37EF6F4131727009386160070
:103CC8003387E50093960601930F580003270700F2
:103CD80093D6060163FE6F00930240006FF09FF6D3
:103CE800939606010327070293D60601E3EA6FF4C9
:103CF8006374A802330605419305000033050E01DD
:103D08006F209017939606010327070393D60601A1
:103D1800E3E86FF2E360A8FE678000001308000084
:103D2800330605419305000033050E016F20D014BA
:103D38008327050083C607006388062E1308C00280
:103D480013871700638E062B83A80500138606FDCC
:103D58001376F60F1303900093881800636CC30A58
:103D680023A0150183C617006384061693872700CE
:103D7800638E0615138606FD1308E002930890006B
:103D88001303C0021376F60F6386060363E0C80CBC
:103D980083461700138617001387070063880612E7
:103DA800638A662A93070600138606FD1376F60FC4
:103DB800E39E06FD83A605019386160023A8D50079
:103DC80083461700638206281307C002138617006C
:103DD8006382E62213085004930890001303C0027C
:103DE800138706FD93F6F60D1377F70F6386060F14
:103DF80063FAE81A83A64501130706009307100023
:103E08009386160023AAD5002320E5001385070012
:103E1800678000001306B002638AC6041306D00246
:103E28006386C6041306E002638CC61883A64500A1
:103E380023A01501930710009386160023A2D5002E
:103E48002320E500138507006780000083A605018D
:103E580013870700930710009386160023A8D50040
:103E68002320E500138507006780000023A01501C3
:103E780083C817006380081C13872700638C081BFE
:103E880003A68500938608FD93F6F60F13089000A5
:103E9800130616006370D8029306E0026380D814F4
:103EA80023A4C500930710002320E500138507000D
:103EB8006780000023A4C50083C62700638A060024
:103EC8001306C00293071700E396C6EA1387070094
:103ED800930740006FF0DFF803A7450113071700A9
:103EE80023AAE50083C71700638A07121308C002D4
:103EF800130716006386071383A6C500938757FD2B
:103F080093F7D70F9386160023A6D500638A070078
:103F1800930710002320E500138507006780000041
:103F2800834716006388070E130726006384070F6C
:103F380083A68501938707FD93F7F70F93861600ED
:103F48009308900023ACD500E3E4F8FC83462600F0
:103F5800638E060A930736006388060B13069000E3
:103F68009308C002938606FD93F6F60F637ED6008B
:103F780083A6450013870700930710009386160051
:103F880023A2D5006FF0DFED8346170013881700D2
:103F980013870700638A06066382160B93070800D7
:103FA8006FF05FFC83C6170013071600930706001F
:103FB8006382060463826604130607006FF05FE2FB
:103FC80023A0150183C617006388060213862700FD
:103FD80063820603930707006FF0DFDF23A4C500A1
:103FE80083C62700638A06009307C00213061700DA
:103FF800E392F6FE13070600930750006FF05FE6A2
:10400800930700006FF0DFE5138707009307700040
:104018006FF01FE5930760006FF09FE41307060039
:10402800930730006FF0DFE3138707009307000062
:104038006FF01FE3930720006FF09FE2130708005B
:10404800930770006FF0DFE11387070093075000B4
:104058006FF01FE113070600930740006FF05FE061
:10406800130101F8232C8106232A9106232821070E
:10407800232631072324410723206107232E7105B6
:10408800232E1106232251071384050083C505003A
:1040980093040103232801022326810023A204009C
:1040A80023A4040023A6040023A8040023AA0400D0
:1040B80023AC040023AE040023280100232A0100B6
:1040C800232C0100232E01002320010223220102B8
:1040D8002324010223260102930B0500130B06007B
:1040E800138A06001309070093890700638E0514D5
:1040F800930AC1009385040013850A00EFF05FC39B
:1041080093070105131525003385A7000327C10070
:10411800832705FC03470700938717002320F5FC36
:10412800E31A07FC23268100B30B740183450400BE
:10413800637274139306C0029307040033C76501C2
:104148006382D5022380E7008327C100B387270154
:104158002326F10063FE770183C5070033C7650195
:10416800E392D5FEB38727012326F100E3E677FF24
:104178008347040023268100930AC100638E070247
:104188009385040013850A00EFF09FBA9307010591
:10419800131525003385A7000327C100832705FCD5
:1041A80003470700938717002320F5FCE31A07FC51
:1041B80023268100637474039306C00283470400B6
:1041C80033C74701638AD7062300E4000324C100EC
:1041D8003304240123268100E36274FF13040101E0
:1041E800138904000325040093850900130444007F
:1041F800EF0000489305050003250900130949004D
:10420800EF00004793090500E39E84FC8320C10763
:104218000324810783244107032901078329C10651
:10422800032A8106832A4106032B0106832BC10535
:10423800130101086780000033042401232681004C
:10424800E36E74F76FF09FF9B30BA400E36474EFA7
:104258006FF0DFF8E39605F26FF05FF89307500010
:1042680063E6A704B7270080938707B313152500D3
:104278003305F5008327050067800700B72700800E
:1042880003A587EC6780000003A5C1826780000052
:1042980003A5818267800000B727008003A5C7EACD
:1042A8006780000003A541826780000013050000B5
:1042B80067800000B346B50093F616001357150043
:1042C80093D71500638C0600B7A6FFFF93861600E8
:1042D800B3C7D7009397070193D7070133C7E70000
:1042E800137717009356250093D71700630C070020
:1042F80037A7FFFF13071700B3C7E7009397070116
:1043080093D70701B3C6D70093F6160013573500A5
:1043180093D71700638C0600B7A6FFFF9386160095
:10432800B3C7D7009397070193D7070133C7E700AF
:10433800137717009356450093D71700630C0700AF
:1043480037A7FFFF13071700B3C7E70093970701C5
:1043580093D70701B3C6D70093F616001357550035
:1043680093D71700638C0600B7A6FFFF9386160045
:10437800B3C7D7009397070193D7070133C7E7005F
:10438800137717009356650093D71700630C07003F
:1043980037A7FFFF13071700B3C7E7009397070175
:1043A80093D70701B3C6D70093F6160013577500C5
:1043B80093D71700638C0600B7A6FFFF93861600F5
:1043C800B3C7D7009397070193D7070193F6170050
:1043D80013D51700638CE600B7A7FFFF9387170074
:1043E800B347F500139507011355050167800000D1
:1043F80033C6A5009376F50F1376160013D716006B
:1044080093D71500630C060037A6FFFF13061600A6
:10441800B3C7C7009397070193D7070133C7E700CE
:104428001376170093D7170013D72600630C0600DE
:1044380037A6FFFF13061600B3C7C70093970701F7
:1044480093D7070133C7E7001377170013D6360051
:1044580093D71700630C070037A7FFFF1307170050
:10446800B3C7E7009397070193D7070133C6C7007F
:104478001376160013D7460093D71700630C06006F
:1044880037A6FFFF13061600B3C7C70093970701A7
:1044980093D7070133C7E7001377170013D65600E1
:1044A80093D71700630C070037A7FFFF1307170000
:1044B800B3C7E7009397070193D7070133C6C7002F
:1044C8001376160013D7660093D71700630C0600FF
:1044D80037A6FFFF13061600B3C7C7009397070157
:1044E80093D7070133C7E7001377170093D67600F1
:1044F80093D71700630C070037A7FFFF13071700B0
:10450800B3C7E7009397070193D7070113F717007D
:1045180093D71700630CD70037A7FFFF13071700BF
:10452800B3C7E7009397070193D707011355850091
:1045380033C6A7001377F50F1376160093561700A6
:1045480013D51700630C0600B7A7FFFF9387170062
:104558003345F5001315050113550501B3C6A6002B
:1045680093F616009357270013551500638C060021
:10457800B7A6FFFF938616003345D500131505012E
:1045880013550501B347F50093F717009356370005
:1045980013551500638C0700B7A7FFFF9387170013
:1045A8003345F5001315050113550501B346D5002C
:1045B80093F616009357470013551500638C0600B1
:1045C800B7A6FFFF938616003345D50013150501DE
:1045D80013550501B347F50093F717009356570095
:1045E80013551500638C0700B7A7FFFF93871700C3
:1045F8003345F5001315050113550501B346D500DC
:1046080093F616009357670013551500638C060040
:10461800B7A6FFFF938616003345D500131505018D
:1046280013550501B347F50093F7170013577700A3
:1046380013551500638C0700B7A7FFFF9387170072
:104648003345F5001315050113550501937715003A
:1046580013551500638CE700B7A7FFFF9387170072
:104668003345F50013150501135505016780000052
:1046780033C8A5009376F50F1317050113781800B2
:104688001357070113D6160093D71500630C0800BB
:10469800B7A5FFFF93851500B3C7B7009397070128
:1046A80093D7070133C6C7009375160093D7170031
:1046B80013D62600638C0500B7A5FFFF9385150068
:1046C800B3C7B7009397070193D7070133C6C7004D
:1046D8001376160093D5360093D71700630C06009F
:1046E80037A6FFFF13061600B3C7C7009397070145
:1046F80093D70701B3C5B70093F5150013D6460045
:1047080093D71700638C0500B7A5FFFF93851500A5
:10471800B3C7B7009397070193D7070133C6C700FC
:104728001376160093D5560093D71700630C06002E
:1047380037A6FFFF13061600B3C7C70093970701F4
:1047480093D70701B3C5B70093F5150013D66600D4
:1047580093D71700638C0500B7A5FFFF9385150055
:10476800B3C7B7009397070193D7070133C6C700AC
:104778001376160093D6760093D71700630C0600BD
:1047880037A6FFFF13061600B3C7C70093970701A4
:1047980093D7070113F6170093D71700630CD600B9
:1047A800B7A6FFFF93861600B3C7D70093970701F4
:1047B80093D7070113578700B3C6E70093F616008F
:1047C8001377F70F1356170093D71700638C06005B
:1047D800B7A6FFFF93861600B3C7D70093970701C4
:1047E80093D7070133C6C7001376160093562700E0
:1047F80093D71700630C060037A6FFFF13061600B1
:10480800B3C7C7009397070193D70701B3C6D7006B
:1048180093F616001356370093D71700638C0600DB
:10482800B7A6FFFF93861600B3C7D7009397070173
:1048380093D7070133C6C70013761600935647006F
:1048480093D71700630C060037A6FFFF1306160060
:10485800B3C7C7009397070193D70701B3C6D7001B
:1048680093F616001356570093D71700638C06006B
:10487800B7A6FFFF93861600B3C7D7009397070123
:1048880093D7070133C6C7001376160093566700FF
:1048980093D71700630C060037A6FFFF1306160010
:1048A800B3C7C7009397070193D70701B3C6D700CB
:1048B80093F616001357770093D71700638C0600FA
:1048C800B7A6FFFF93861600B3C7D70093970701D3
:1048D80093D7070193F6170093D71700638CE60068
:1048E80037A7FFFF13071700B3C7E7009397070120
:1048F80093D7070113550501B3C5A7001377F50F23
:104908009316050193F5150093D606011356170063
:1049180013D51700638C0500B7A7FFFF938717000F
:104928003345F50013150501135505013346C50038
:10493800137616009357270013551500630C0600CD
:1049480037A6FFFF130616003345C50013150501EA
:1049580013550501B347F50093F7170013563700B1
:1049680013551500638C0700B7A7FFFF938717003F
:104978003345F50013150501135505013346C500E8
:10498800137616009357470013551500630C06005D
:1049980037A6FFFF130616003345C500131505019A
:1049A80013550501B347F50093F717001356570041
:1049B80013551500638C0700B7A7FFFF93871700EF
:1049C8003345F50013150501135505013346C50098
:1049D800137616009357670013551500630C0600ED
:1049E80037A6FFFF130616003345C500131505014A
:1049F80013550501B347F50093F7170013577700D0
:104A080013551500638C0700B7A7FFFF938717009E
:104A18003345F50013150501135505019377150066
:104A280013551500638CE700B7A7FFFF938717009E
:104A38003345F500131505011355050193D7860075
:104A48003347F5001377170093F7F70F93D617003E
:104A580013551500630C070037A7FFFF130717004E
:104A68003345E5001315050113550501B346D50077
:104A780093F6160013D7270013551500638C06000C
:104A8800B7A6FFFF938616003345D5001315050119
:104A9800135505013347A7001377170093D637003E
:104AA80013551500630C070037A7FFFF13071700FE
:104AB8003345E5001315050113550501B3C6A600D6
:104AC80093F6160013D7470013551500638C06009C
:104AD800B7A6FFFF938616003345D50013150501C9
:104AE800135505013347A7001377170093D65700CE
:104AF80013551500630C070037A7FFFF13071700AE
:104B08003345E5001315050113550501B3C6A60085
:104B180093F6160013D7670013551500638C06002B
:104B2800B7A6FFFF938616003345D5001315050178
:104B3800135505013347A7001377170093D777005C
:104B480013551500630C070037A7FFFF130717005D
:104B58003345E500131505011355050113771500B5
:104B680013551500630CF700B7A7FFFF93871700CD
:104B78003345F5001315050113550501678000003D
:104B880033C6A5001377F50F9317050113761600A2
:104B980093D707019356170013D51500630C060029
:104BA800B7A5FFFF938515003345B500131505011B
:104BB80013550501B346D50013F616001355150015
:104BC80093562700630C0600B7A5FFFF93851500D1
:104BD8003345B5001315050113550501B346D50036
:104BE80093F616001356370013551500638C06000C
:104BF800B7A6FFFF938616003345D50013150501A8
:104C0800135505013346C500137616009356470021
:104C180013551500630C060037A6FFFF1306160090
:104C28003345C5001315050113550501B346D500D5
:104C380093F616001356570013551500638C06009B
:104C4800B7A6FFFF938616003345D5001315050157
:104C5800135505013346C5001376160093566700B1
:104C680013551500630C060037A6FFFF1306160040
:104C78003345C5001315050113550501B346D50085
:104C880093F616001357770013551500638C06002A
:104C9800B7A6FFFF938616003345D5001315050107
:104CA800135505019376150013551500638CE6001E
:104CB80037A7FFFF130717003345E5001315050154
:104CC8001355050193D787003347F500137717006D
:104CD80093F7F70F93D6170013551500630C0700C9
:104CE80037A7FFFF130717003345E5001315050124
:104CF80013550501B3C6A60093F6160013D727006F
:104D080013551500638C0600B7A6FFFF938616009F
:104D18003345D50013150501135505013347E50043
:104D28001377170093D6370013551500630C070047
:104D380037A7FFFF130717003345E50013150501D3
:104D480013550501B346D50093F6160013D747004F
:104D580013551500638C0600B7A6FFFF938616004F
:104D68003345D50013150501135505013347E500F3
:104D78001377170093D6570013551500630C0700D7
:104D880037A7FFFF130717003345E5001315050183
:104D980013550501B346D50093F6160013D76700DF
:104DA80013551500638C0600B7A6FFFF93861600FF
:104DB8003345D50013150501135505013347E500A3
:104DC8001377170093D7770013551500630C070066
:104DD80037A7FFFF130717003345E5001315050133
:104DE800135505011377150013551500630CF700CB
:104DF800B7A7FFFF938717003345F5001315050183
:104E08001355050167800000130500006780000046
:104E1800130101F623282109232631092328A10794
:104E28002326B107232E1108232C8108232A910851
:104E3800232441092322510923206109232E7107C4
:104E4800232C8107232A910713F307042320E10069
:104E5800930D0500138D05001309060093890600BC
:104E680063000320B72A0080938A4AD713FB0701FF
:104E780063180B1C93F617012322D1009306000335
:104E880013F717002326D1006300071C13F7270028
:104E980093FB0702630C071C634E0D1C13F74700B6
:104EA800631C072293F78700232401006388070007
:104EB800930700029389F9FF2324F100638C0B0008
:104EC80093070001630EF922930789FF93B7170030
:104ED800B389F940631A0D1A93070003230EF100F2
:104EE80093040000130A1000930C10001304C1016E
:104EF80083270100130D0A006354FA00138D07007D
:104F080083274100B389A941938AF9FF6392070275
:104F1800635A30211386090013850D00930500029A
:104F2800B38D3D01EF104075930AE0FF9309F0FF40
:104F380083278100638607002380FD00938D1D0071
:104F4800638A0B00130780006300E91C1307000144
:104F5800630CE918631C0B026350301D13C9FAFF78
:104F68001359F94133F92A018325C100130B19009C
:104F78009389FAFF13850D0013060B00B3892941A5
:104F8800EF10806FB38D6D01938AF9FF635EAA01FC
:104F9800330A4D4113850D0013060A0093050003DB
:104FA800EF10806DB38D4D013306940013870D000B
:104FB800130510001307170083450600B307E540E3
:104FC800B3879700A30FB7FEB387FD001306F6FF5C
:104FD800E342F0FE33889D016354300393C7FAFF20
:104FE80093D7F741B3FAFA00938A1A001305080019
:104FF80013860A0093050002EF1000683308550174
:105008008320C10903248109832441090329010953
:105018008329C108032A8108832A4108032B010830
:10502800832BC107032C8107832C4107032D01071C
:10503800832DC106130508001301010A67800000CB
:1050480093F7E7FF23226101130700022326E100FB
:1050580013F7270093FB0702630A07006FF0DFE3EB
:10506800B72A0080938ACAD46FF05FE02324010036
:105078006FF0DFE49307D0022324F100330DA04141
:105088009389F9FFE39E0BE2930400001304C10126
:105098006F00800093840C009305090013050D0030
:1050A800EF1080453385AA0003460500938C140051
:1050B8003307940113050D0093050900A30FC7FEDC
:1050C800130C0D00EF10C03E138A0C00130D0500E1
:1050D800E3722CFD6FF0DFE19307B0029389F9FFCB
:1050E8002324F1006FF09FDD130700032380ED00F8
:1050F80013078007A380ED00938D2D006FF09FE5C7
:105108009389E9FF6FF01FDD130700032380ED008B
:10511800938D1D006FF01FE493890A00938AFAFFAC
:105128006FF0DFE61387E9FF93890A00930A070007
:105138006FF01FE09307A0006300F502370701F046
:105148008327470093D7070193F7F70FE38A07FEF2
:105158002320A70067800000370701F08327470056
:1051680093D7070193F7F70FE38A07FE9307D00059
:105178002320F7006FF09FFC130101E7232291150C
:105188002326111623248116232291162320211762
:10519800232E3115232C4115232A51152328611557
:1051A80023267115232481152320A115232EB1133D
:1051B800232AB116232CC116232ED1162320E11839
:1051C8002322F118232401192326111983470500E6
:1051D800930C4117232A9101E38C0730130901032B
:1051E800372C0080372A0080B72900801304050077
:1051F800130B0900130C8CB4130ACAB89389C9D4C9
:10520800B72A008013075002638AE70A2300FB00CD
:1052180083471400130B1B0013041400E39407FEC8
:1052280023000B0083460103638A0640130610001F
:105238009305A000370701F01308D0003306264174
:105248006382B6068327470093D7070193F7F70FC2
:10525800E38A07FE3305C9002320D7001309190084
:1052680083460900E39E06FC8320C11603248116A9
:1052780083244116032901168329C115032A8115A0
:10528800832A4115032B0115832BC114032C811488
:10529800832C4114032D0114832DC113130101190B
:1052A800678000008327470093D7070193F7F70F1C
:1052B800E38A07FE232007016FF0DFF88345140017
:1052C80093060001930B0000138705FE1377F70F71
:1052D8009304140063E8E6021317270033078701D5
:1052E800832707006780070093EB1B0013840400E3
:1052F8008345140093041400138705FE1377F70FF2
:10530800E3FCE6FC938705FD93F7F70F130790007E
:10531800637AF70C9307A002130DF0FF638EF50E66
:105328009307E0021307F0FF6388F50893F7F50D7C
:105338009306C004638AD7049387F5FB93F7F70FA6
:105348009306700363E4F62C93972700B38747010D
:1053580083A707006780070093EB0B011384040001
:105368006FF01FF993EB4B00138404006FF05FF8A4
:1053780093EB0B02138404006FF09FF793EB8B0001
:10538800138404006FF0DFF603C61400930670035D
:10539800938D14009307F6FB93F7F70F63ECF6264B
:1053A800B7260080939727009386C6C6B387D70091
:1053B80083A707006780070083C5140013079000C0
:1053C80093861400938705FD93F7F70F637CF72600
:1053D8009307A0026384F52A93840600130700004C
:1053E8006FF0DFF4130D00001306900013172D0063
:1053F800B306A7019384140093961600B386B600EB
:1054080083C50400138D06FD938705FD93F7F70FF9
:10541800E37EF6FC6FF0DFF003AD0C00930424008C
:1054280083452400938C4C00E35C0DEE330DA041C2
:1054380093EB0B016FF0DFEE938D040093EB0B04FD
:105448001306000193874C0083A50C00938C07007A
:1054580093870B0093060D0013050B00EFF05F9B7D
:1054680083C71D00130B050013841D00E39C07D898
:105478006FF01FDB938D04001306A0006FF09FFCF4
:10548800938D040003A40C00938C4C00630C0472ED
:1054980083470400E38A071AE308071A93070400FE
:1054A8006F00C000B386E7406388860093871700C3
:1054B80083C60700E39806FE93FB0B01B38487407D
:1054C80063860B706352900A1307440093064B00DF
:1054D8003337EB00B336D4009387F4FF1347170034
:1054E80093C6160093B797003367D70093C7170082
:1054F800B3F7E700E3880718B3678B0093F7370023
:10550800E392071813F6C4FF9307040013070B0070
:105518003306860083A607001307470093874700D2
:10552800232ED7FEE318F6FE93F7C4FF3304F400E6
:10553800B306FB0033079B0063869702834504008C
:10554800138617002380B600635E96000346140096
:1055580093872700A380C60063D69700834724005B
:105568002381F600130B070013841D0063DEA401DA
:10557800B3049D4013050B00138604009305000235
:10558800EF10800F330B9B0083C71D00E39C07C6F9
:105598006FF01FC9938D04009307F0FF630EFD5E43
:1055A80083A50C0093870B00938C4C0093060D0089
:1055B800130600016FF05FEA938D04001306800064
:1055C8006FF05FE8938D040093FB0B01130DFDFF53
:1055D800638A0B5C83A70C0013071B00938C4C0099
:1055E8002300FB0013841D00E352A00913060D00DD
:1055F8009305000213050700EF10000883C71D007C
:10560800330BA501E39007C06FF09FC11386050017
:10561800938D04009307500213071B006302F6568C
:105628002300FB0003C60D0063160654130B070086
:1056380023000B0083460103E39A06BE130500000E
:105648006FF09FC2130700001306900093172700FE
:105658003387E70093861600131717003307B70040
:1056680083C50600130707FD938705FD93F7F70F1A
:10567800E37EF6FC938406006FF05FCB03A70C0073
:1056880083C52400938C4C009347F7FF93D7F741C9
:105698003377F700938424006FF05FC99306C00640
:1056A80093EB2B0093874C001306A000E38ED5D80C
:1056B8006F00404A1307C00683A70C0093EB0B0446
:1056C800938C4C00639CE56237270080130747D70B
:1056D80083C5070003C6170083C8270003C837001F
:1056E80003C5470083C6570093DF4500135F460094
:1056F80093DE4800135E48001353450093F5F50008
:105708001376F60093F8F8001378F8001375F5008F
:1057180093D74600B305B7003306C700B30FF701A8
:10572800330FE701B30ED701B3081701330EC701D2
:1057380033080701330367003305A70083C2050058
:105748008343060083CF0F00034F0F0083CE0E0064
:1057580083C80800034E0E000348080003430300F3
:10576800834505003306F700034606009307A003A8
:1057780093F6F600230DF100A30EF1002300F102C9
:10578800A301F1022303F102230CF101A30C510040
:10579800A30DE101230E7100230FD101A30F110105
:1057A800A300C1032301010323026102A302B10282
:1057B800B307D700A303C10283C7070093FB0B01FC
:1057C8001304FDFF2304F10263920B4E93071001AB
:1057D80063D8A74D1304FDFE1306040093050002C9
:1057E80013050B00EF0050691306100193058101A2
:1057F80033058B00EF0090563307AB0183C72400B5
:1058080013842400130B0700E39E079E6FF05FA12B
:105818001307C00683A70C00938C4C006390E54ED9
:10582800138709006FF0DFEA938D04001306000167
:105838006FF05FC183A70C00938C4C0083CD0700E9
:1058480063800D3C130730066354B75B930540062D
:1058580013850D002322F100EF0010453385A900C0
:10586800034705009305400613850D00230CE1004E
:10587800EF00D04B9305A00013040500EF00D042C1
:105888003385A900034705009305A000130504000C
:10589800A30CE100EF009049832741001304400066
:1058A800930D05009306300013072000B38DB9014E
:1058B80003C60D00930501133387E5002304C7EEE3
:1058C80083CD1700130701133307D7001306E0022F
:1058D8002304C7EE638A0D34130630066358B647AF
:1058E8009305400613850D002326E1002324D100EB
:1058F8002322F100EF00503B3385A9000346050041
:1059080093070113338487002304C4EE93054006EC
:1059180013850D00EF0090419305A00013040500C6
:10592800EF0090383385A900034605000327C1001E
:1059380083268100130504009305A0002305C7EE04
:1059480013843600EF00903E83274100930D050035
:10595800B38DB90183C60D00130701133307870000
:105968002304D7EE130414001307011383CD270073
:10597800B30687001307E0022384E6EE130714003A
:10598800638C0D2C13063006635EB637930540060C
:1059980013850D002326D1002322E1002324F100E2
:1059A800EF0090303385A900032741000346050026
:1059B800930701133387E7002304C7EE93054006D6
:1059C80013850D00EF0090369305A000930D050098
:1059D800EF00902D3385A900034705008326C100F9
:1059E8009305A00013850D002385E6EE1307340008
:1059F8002322E100EF009033032741008327810031
:105A0800930D0500B38DB90103C60D00930601136C
:105A1800B386E6001304170083CD370093070113FC
:105A2800338787002384C6EE9307E0022304F7EE4A
:105A380093071400638A0D249306300663D2B637A1
:105A48009305400613850D002324E1002322F1006D
:105A5800EF0090253385A900832741008346050080
:105A680013070113B307F7002384D7EE9305400605
:105A780013850D00EF00902B9305A000930D0500F2
:105A8800EF0090223385A900834705000327810092
:105A980013850D009305A0002305F7EE9307340046
:105AA8002322F100EF00902883274100930D050081
:105AB800B38DB90183C60D00130701133307F7002F
:105AC800138417002304D7EE93FB0B01930DFDFFFE
:105AD80063960B026356A43DB30B8D4013050B0070
:105AE80013860B0093050002EF001039B306A4419A
:105AF800338DB601330B7B01930DFDFF13050B00AE
:105B08001306040093058101EF00502533078B002D
:105B1800130B07006352A403130600029306100038
:105B2800130B1B00B3876641B387B701A30FCBFEE6
:105B3800B307F700E346F4FE83C714001384140088
:105B4800639207EC6FF0CFED93EB2B0093874C003B
:105B5800938D040083A50C001306A000938C070006
:105B68006FF01F8F83A70C0093EB0B04938C4C00F2
:105B78006FF0DFCC93072B00130B07001387070088
:105B88002300CB0083C71D0013841D00130B0700DF
:105B9800639A07E66FF0CFE893EB1B00130D8000C4
:105BA8006FF01FA0635AA02B13060D0013050B00FE
:105BB80093050002330BAB01EF00102C130DF0FF1F
:105BC8006FF05FA11384CAD96FF01F8D930BFDFF8F
:105BD80063D6A42BB3079D4013050B00138607005B
:105BE800930500022322F100EF00102983274100CA
:105BF800B386A441338D7601330BFB006FF09F8C85
:105C080013070003230CE100930610001307011388
:105C180083CD17003307D7001306E0022304C7EE2D
:105C280013042000E39A0DCA1307011333078700F2
:105C380013842600930600032304D7EE83CD2700A0
:105C480013070113B30687001307E0022384E6EE67
:105C580013071400E3980DD2930601133387E60067
:105C6800130424009306000383CD37009307011320
:105C78002304D7EE338787009307E0022304F7EE67
:105C880093071400E39A0DDA13070113B307F7001B
:105C980013070003130424002384E7EE6FF0DFE208
:105CA8009307EDFF130D040013840700130610017A
:105CB8009305810113050B00EF00500A930B1001A7
:105CC80013071B01E3DCABB39305000213062001A5
:105CD8009306100113071700B307E640B307FB004C
:105CE800A30FB7FEB3878700E3C6F6FE6FF01FB1B8
:105CF80013090103130B09006FF08FD293840D0071
:105D08006FF0DFB393069000E3DEB6CF9305A000F3
:105D180013850D002322E1002324F100EF00C07851
:105D28003385A90003274100834605009307011323
:105D38003387E700130424002304D7EE9305A0005B
:105D480013850D00130704006FF09FCA2324D100A8
:105D580013079000E35EB7BF9305A00013850D00FD
:105D68002322F100EF0040743385A90003470500A2
:105D780083268100930701133384870093862600C6
:105D880013850D002304E4EE9305A0001384060098
:105D9800EF00C079930D0500832741006FF05FBBCA
:105DA80013079000E356B7D19305A00013850D00A3
:105DB8002322F100EF00406F3385A90083274100BB
:105DC8000347050093060113B387F60013850D00FA
:105DD8002384E7EE130424009305A0002322810006
:105DE800EF00C074930D0500832741006FF05FCC6E
:105DF800130790006352B7059305A00013850D00A3
:105E08002322F100EF00406A3385A900034705000B
:105E18009305A00013850D00230CE100EF0000712D
:105E280013043000930D050093062000130710009B
:105E3800832741006FF09FA71304200093061000EA
:105E4800130700006FF09FA693F40B01E38004D8BA
:105E5800930400006FF04FF183A70C0013071B0099
:105E6800938C4C002300FB0013841D0083C71D0086
:105E7800130B0700639807B86FF08FBA138D0B00E8
:105E88006FF04FE433079B00130414008347F4FFBB
:105E9800130B1B00A30FFBFEE318EBFE6FF08FEC58
:105EA8009307EDFF138D0D00938D07006FF01FC54D
:105EB800130101FD232291022328610123261102E7
:105EC8002324810223202103232E3101232C410185
:105ED800232A5101232671012324810123229101C0
:105EE800130B050093840500639C06381304060011
:105EF8009309050017C9FFFF130989EA63F8C5125A
:105F0800B7070100938A05006378F6109306F00F2F
:105F1800B3B6C60093963600B357D6003309F900D6
:105F280003470900B306D700130700023307D74019
:105F3800630C0700B394E400B356DB003314E600A7
:105F4800B3EA9600B319EB00135B040193050B0049
:105F580013850A00EF00405A1309050093050B004A
:105F6800931B040113850A00EF00805493DB0B0197
:105F7800930405009305050013850B00EF0080507E
:105F88001319090113D709013367E900138A0400BB
:105F9800637EA70033078700138AF4FF63688700CE
:105FA8006376A700138AE4FF33078700B304A7408A
:105FB80093050B0013850400EF0000541309050036
:105FC80093050B0013850400EF00804E9399090197
:105FD80093040500930505001319090113850B00A7
:105FE80093D90901EF00004AB36939011386040007
:105FF80063FCA900B30934011386F4FF63E6890042
:1060080063F4A9001386E4FF93170A01B3E7C700F6
:10601800130A00006F000013B70700019306000180
:10602800E36CF6EE930680016FF01FEF138A06000B
:10603800631A06009305000013051000EF0040479F
:1060480013040500B7070100637CF4129307F00FEF
:1060580063F48700130A8000B35744013309F90039
:106068008346090013060002B38646013306D6406C
:1060780063120612B3848440130A1000135B0401F0
:1060880093050B0013850400EF0000471309050072
:1060980093050B0013850400931B0401EF00404196
:1060A80093DB0B01930405009305050013850B0092
:1060B800EF00403D1319090113D709013367E900BF
:1060C800938A0400637EA70033078700938AF4FF4E
:1060D800636887006376A700938AE4FF3307870025
:1060E800B304A74093050B0013850400EF00C040DC
:1060F8001309050093050B0013850400EF00403BCE
:1061080093990901930405009305050013190901E2
:1061180013850B0093D90901EF00C036B369390123
:106128001386040063FCA900B30934011386F4FF45
:1061380063E6890063F4A9001386E4FF93970A01D4
:10614800B3E7C7001385070093050A008320C1023F
:106158000324810283244102032901028329C10106
:10616800032A8101832A4101032B0101832BC100EA
:10617800032C8100832C4100130101036780000078
:10618800B7070001130A0001E368F4EC130A800161
:106198006FF09FEC3314C40033DAD400B319CB008A
:1061A800B356DB00135B0401B394C40093050B00E2
:1061B80013050A00B3EA9600EF000034130905003E
:1061C80093050B0013050A00931B0401EF00402EF2
:1061D80093DB0B01930405009305050013850B0061
:1061E800EF00402A1319090113D70A013367E900A0
:1061F800138A0400637EA70033078700138AF4FF1D
:10620800636887006376A700138AE4FF3307870073
:10621800B304A74093050B0013850400EF00C02DBD
:106228001309050093050B0013850400EF004028AF
:10623800930405009305050013850B00EF008024E7
:1062480093960A011319090193D60601B367D90079
:106258001387040063FEA700B38787001387F4FF42
:1062680063E8870063F6A7001387E4FFB387870016
:10627800131A0A01B384A740336AEA006FF01FE0DB
:1062880063ECD51EB707010063F4F6049305F00F1D
:1062980033B5D5001315350033D7A60097C7FFFFD0
:1062A800938707B0B387E70083C50700130A000286
:1062B800B385A500330ABA4063160A029307100093
:1062C800E3E296E83336CB00934716006FF09FE77A
:1062D800B707000113050001E3E0F6FC1305800190
:1062E8006FF09FFBB35AB600B3964601B3EADA00E3
:1062F80033D9B400B3974401B355BB0093DB0A010B
:10630800B3E4F5001305090093850B00B3194601A2
:10631800EF00801E1304050093850B001305090088
:10632800139C0A01EF00C018135C0C011309050047
:106338009305050013050C00EF00C01413140401A5
:1063480013D704013367E400930C0900637EA700A8
:1063580033075701930CF9FF636857016376A70069
:10636800930CE9FF330757013309A74093850B00C6
:1063780013050900EF0040181304050093850B006E
:1063880013050900EF00C012130905009305050065
:1063980013050C00EF00000F939704011314040178
:1063A80093D707013367F40013060900637EA7003B
:1063B800330757011306F9FF636857016376A7008F
:1063C8001306E9FF3307570193970C01370E0100B5
:1063D800B3E7C7001308FEFF33F3070133F80901D9
:1063E8003307A74093DE070193D90901130503007A
:1063F80093050800EF00000993080500938509003C
:1064080013050300EF0000081303050093050800B7
:1064180013850E00EF000007130805009385090097
:1064280013850E00EF00000693D60801330303011D
:10643800B386660063F406013305C50113D6060169
:106448003305A6006366A702E314A7BC370701005B
:106458001307F7FFB3F6E60093960601B3F8E800D2
:1064680033164B01B3861601130A0000E37CD6CC21
:106478009387F7FF6FF0DFB9130A00009307000056
:106488006FF05FCC130605001305000093F61500A6
:10649800638406003305C50093D51500131616004E
:1064A800E39605FE678000006340050663C605069F
:1064B80013860500930505001305F0FF630C06021B
:1064C80093061000637AB6006358C00013161600CE
:1064D80093961600E36AB6FE1305000063E6C5004E
:1064E800B385C5403365D50093D6160013561600FC
:1064F800E39606FE6780000093820000EFF05FFBE2
:1065080013850500678002003305A04063D80500A5
:10651800B305B0406FF0DFF9B305B04093820000D7
:10652800EFF01FF93305A040678002009382000056
:1065380063CA0500634C0500EFF09FF7138505005B
:1065480067800200B305B040E35805FE3305A0405C
:10655800EFF01FF63305B04067800200B3C7A5000F
:1065680093F73700B308C500639207069307300016
:1065780063FEC70493773500130705006398070681
:1065880013F6C8FF930706FE636CF708637CC7021F
:10659800938605009307070003A806009387470022
:1065A8009386460023AE07FFE3E8C7FE9307F6FF8E
:1065B800B387E74093F7C7FF938747003307F70090
:1065C800B385F500636817016780000013070500AD
:1065D800E37C15FF83C70500130717009385150093
:1065E800A30FF7FEE36817FF6780000083C6050066
:1065F8001307170093773700A30FD7FE938515006D
:10660800E38007F883C60500130717009377370060
:10661800A30FD7FE93851500E39A07FC6FF05FF68A
:1066280083A6050083A2450083AF850003AFC5009C
:1066380083AE050103AE450103A3850103A8C50187
:10664800938545022320D70083A6C5FF2322570040
:106658002324F7012326E7012328D701232AC7018A
:10666800232C6700232E070113074702232ED7FE8A
:10667800E368F7FA6FF09FF11303F00013070500C2
:10668800637EC3029377F7006390070A6392050855
:10669800937606FF1376F600B386E6002320B7004C
:1066A8002322B7002324B7002326B70013070701C6
:1066B800E366D7FE6314060067800000B306C34094
:1066C8009396260097020000B38656006780C6009E
:1066D8002307B700A306B7002306B700A305B70032
:1066E8002305B700A304B7002304B700A303B7002A
:1066F8002303B700A302B7002302B700A301B70022
:106708002301B700A300B7002300B700678000008B
:1067180093F5F50F93968500B3E5D500939605019B
:10672800B3E5D5006FF0DFF69396270097020000D7
:10673800B386560093820000E78006FA9380020031
:10674800938707FF3307F7403306F600E378C3F66D
:046758006FF0DFF30C
:10675C0013010181371700002326117E2324817E2B
:10676C002322917E2320217F232E317D232C417DDA
:10677C00232A517D2328617D2326717D2324817D4D
:10678C002322917D2320A17D232EB17BB7F7FFFF20
:10679C00130101F8130707839387C77D330727007D
:1067AC00138605002326A100B305F7001305E105A8
:1067BC00EFD0CFBA13051000EFD01FAA231EA100F3
:1067CC0013052000EFD05FA9231FA1001305300093
:1067DC00EFD09FA82310A10213054000EFD0DFA734
:1067EC00232CA10213055000EFD01FA76304057CD6
:1067FC00232EA1023717000013070783B7F7FFFFFB
:10680C0033072700B307F7002322F10083A7C77EC5
:10681C00638C0738130710006394E7028327410049
:10682C008397077F639E070003274100B737153412
:10683C00938757412326F77E930760062318F77E2C
:10684C000324C103B716000093860683B386260083
:10685C0037F7FFFF3387E600937424009306010695
:10686C0013791400B33790002322E100232AD77E3A
:10687C00231E010493794400B305F90063880900D1
:10688C00938515009395050193D505011305007D9E
:10689C00EFF0DFC1232AA102130A0500B7F7FFFFAF
:1068AC00930A0000631E097063900476639E09725C
:1068BC00631A0930639404341374440063060402AD
:1068CC003717000013070783B7F7FFFF33072700BD
:1068DC00B307F700032601038395C77E0325410305
:1068EC002322F100EFD00FAD83278103639C070AAD
:1068FC0093071000232CF102B7170000B7F4FFFF29
:10690C00938707839384C47EB3872700B38497004F
:10691C00032781031304000093172700B387E700B4
:10692C0093971700232CF102EFD00F9903298103C1
:10693C00232A0104232C010463000904930510008D
:10694C0013850400EFB05F8F83554105EFD01FAA6C
:10695C00231AA1049305F0FF13850400EFB0DF8D1B
:10696C0083554105EFD09FA8231AA1046308046E38
:10697C0013041400E31489FCEFD00F98EFD04F9957
:10698C00EFD0CF9BE30605F8930505001305A00097
:10699C00EFF0DFB18325810313051500EFF05FAE37
:1069AC00232CA102EFD04F91B714000037F4FFFF56
:1069BC0093870483B38727001305C47E3385A70010
:1069CC00EFC04FC3EFD04F93EFD08F9493870483D6
:1069DC00B3872700B3878700130B05000395C77E89
:1069EC00938B0500930500002322F100EFE00F9933
:1069FC0083274100930505000395E77EEFE00F9890
:106A0C0083274100930505000395077FEFE00F975F
:106A1C009305050003154103EFE04F96B78700007F
:106A2C00938757B093090500630AF56A63FAA720A8
:106A3C0037990000930729A06308F56CB7F700009D
:106A4C009387579F6314F52637150080B72A0000EB
:106A5C001305055D138C7AFD37EA0000EFE08FF12A
:106A6C001309A9E323248101130A4A71B72C00806E
:106A7C0083A68CEA930A0000930D00006382066ED5
:106A8C00B717000093870783B7F6FFFFB38727007C
:106A9C00B387D7002322F100371D00006F0040049C
:106AAC0083274100B306B40193962600B386D70022
:106ABC00B306DD0083D6C682B388560193871D00CA
:106ACC001394080103A68CEA13540401939D070147
:106ADC00931A040193DD0D0193DA0A4163FECD1C78
:106AEC0013944D0083274100B304B4019394240004
:106AFC00B3849700B3049D0083A6C48023960482BC
:106B0C0093F616006386060203D66482630246037C
:106B1C00B717008093060A0093850D001385C76292
:106B2C00EFE04FE583D6C482938616002396D48279
:106B3C0083274100B304B40193942400B3849700D9
:106B4C00B3049D0083A6C48013F6260063080602D6
:106B5C0003D684826304860383268100B7170080E2
:106B6C0093850D001385C765EFE0CFE003D6C48293
:106B7C0083A6C480130616002396C48293F646009F
:106B8C00E38006F2832741003304B401131424007C
:106B9C003384870033048D000356A4826312260FBE
:106BAC008356C4826FF05FF1832741008397077F80
:106BBC00E39807C803274100930760062318F77E64
:106BCC006FF01FC837170000130707833307270020
:106BDC00B7F7FFFFB307F7000396C77E83A5877F40
:106BEC0013050A002322F100EFB05FCC0324C1038C
:106BFC002320A10493742400E38004CC37170000F5
:106C0C001307078333072700B7F7FFFFB307F70016
:106C1C002322F100032741008397E77E03254103DC
:106C2C000316C77E8325C77F9397070193064104FC
:106C3C0033E6C700EFC0DF820324C1036FF0DFC768
:106C4C00B72700009387278F6306F54EB75A0000CD
:106C5C009387FAEA631CF504371500801305C559B0
:106C6C00138C8A6037E90000377A0000EFE08FD090
:106C7C001309495A23248101130A9AA76FF01FDFC5
:106C8C00B71700809306090093850D0013850769DB
:106C9C00EFE04FCE8356C48293861600939606017E
:106CAC0093D606012316D4826FF01FE1370401003E
:106CBC001304F4FFB72C0080EFE0CF94832541033D
:106CCC003304A400371500801305056CEFE08FCA60
:106CDC003715008093050B001305856DEFE08FC908
:106CEC0093850B0013050B00EFC05FE593050500C2
:106CFC00371500801305056FEFE0CFC7131404019F
:106D0C0013050B0093850B0013540401EFC01FE314
:106D1C006312053813050B0093850B00EFC01FE2BF
:106D2C009307900063FEA73483A58CEA03258103A7
:106D3C009314040193D40441EFF08FF493050500F0
:106D4C003715008013050576EFE0CFC2B71500802C
:106D5C00371500809385857713054578EFE08FC153
:106D6C00B7150080371500809385C5791305857B91
:106D7C00EFE04FC0B7150080371500809385057D77
:106D8C001305857DEFE00FBF371500809385090053
:106D9C001305057FEFE00FBE8327C10393F61700A1
:106DAC006388060683A68CEA638406063717000000
:106DBC0013070783B7F7FFFF33072700B307F70065
:106DCC0013040000B72900802322F10037190000BA
:106DDC009317440003274100B3878700939727003C
:106DEC00B307F700B307F90003D6678293050400D5
:106DFC001385C980EFE00FB81304140083A78CEA45
:106E0C001314040113540401E364F4FC8327C10339
:106E1C0093F627006388060683A68CEA638A062A03
:106E2C003717000013070783B7F7FFFF3307270057
:106E3C00B307F70013040000B72900802322F100E8
:106E4C00371900009317440003274100B3878700CC
:106E5C0093972700B307F700B307F90003D687828F
:106E6C009305040013858982EFE0CFB0130414005E
:106E7C0083A78CEA1314040113540401E364F4FC97
:106E8C008327C10393F747006386070683A78CEA21
:106E9C006382070C3717000013070783B7F7FFFF50
:106EAC0033072700B307F70013040000B72900804D
:106EBC002322F100371900009317440003274100E7
:106ECC00B387870093972700B307F700B307F90040
:106EDC0003D6A7829305040013854984EFE08FA99C
:106EEC001304140083A78CEA131404011354040133
:106EFC00E364F4FC3717000083A78CEA13070783BD
