:0200000480007A
:10000000130E1000DB2100006394014A130E200040
:10001000371206031302C290B700020193804030EA
:100020003701040213018160DBA120006392414883
:10003000130E300037020203130202109300F0FF88
:100040003701030413011120DBA120006392414614
:10005000130E4000DB210002639C0144130E50008C
:10006000370202011302423037010402130181609A
:10007000B700020193804030DB211102639A4142B4
:10008000130E600037020405130222301301F0FF43
:10009000B700030493801020DBA12002639A414043
:1000A000130E7000DB21000463940140130E8000E6
:1000B000370202011302423037010402130181604A
:1000C000B700020193804030DB2111046392413E6E
:1000D000130E900037020304130212201301F0FFE5
:1000E000B700030493801020DBA120046392413CFD
:1000F000130EA000DB210006639C013A130EB00032
:1001000037020201130242303701040213018160F9
:10011000B700020193804030DB211106639A413819
:10012000130EC0001302F0FF1301F0FFB700030429
:1001300093801020DBA12006639C4136130ED00073
:10014000DB21000863960136130EE000370204023B
:10015000130282603701040213018160B7000201BB
:1001600093804030DB21110863944134130EF0007A
:100170001302F0FF1301F0FFB70003049380102077
:10018000DBA1200863964132130E0001DB21000A37
:1001900063900132130E10013702040213028260D1
:1001A0003701040213018160B700020193804030DF
:1001B000DB21110A639E412E130E20013702030436
:1001C000130212201301F0FFB700030493801020E4
:1001D000DBA1200A639E412C130E3001DB21000CB1
:1001E0006398012C130E4001370201011301F0FF47
:1001F000B700030493801020DBA1200C639A412AEE
:10020000130E50013782797A1302829737F1F0F09A
:100210001301010FB700030493801020DBA1200C11
:1002200063984128130E6001DB21000E63920128C0
:10023000130E7001370201011301F0FFB700030430
:1002400093801020DBA1200E63944126130E8001C1
:100250003702FAFA1302829F37F1F0F01301010F0F
:10026000B700030493801020DBA1200E6392412489
:10027000130E9001DB210080639C0122130EA0016C
:1002800013020000B7000201938040301301000008
:10029000DBA12080639E4120130EB0011302C00336
:1002A000B7000201938040303701040213018160DE
:1002B000DBA12080639E411E130EC0011302A05FCC
:1002C000B70000019380F0FF3701010013013120D6
:1002D000DB211180639E411C130ED0013702040004
:1002E000130242809300F0FF1301F0FFDB21118025
:1002F0006390411C130EE001DB210082639A011A16
:10030000130EF00113020000B70002019380403089
:1003100013010000DBA12082639C4118130E000230
:100320001302C003B700020193804030370104027A
:1003300013018160DBA12082639C4116130E100221
:100340001302A0FF9300F0FF3701010013013120D9
:10035000DB211182639E4114130E20021302400020
:100360009300F0FF1301F0FFDB211182639241142F
:10037000130E300293010000DB210084639A011206
:10038000130E40029301000013020000B7000201A7
:100390009380403013010000DBA12084639A411058
:1003A000130E5002B7012300370223001302C203C9
:1003B000B7000201938040303701040213018160CD
:1003C000DBA120846396410E130E6002B70100FF8B
:1003D000370200FF1302A25FB70000019380F0FF15
:1003E0003701010013013120DB2111846392410C9C
:1003F000130E7002B701FFFF3702030013024280A1
:100400009300F0FF1301F0FFDB2111846392410A96
:10041000130E800293010000DB210086639A01081D
:10042000130E9002B70100FF370200FFB700020170
:100430009380403013010000DBA12086639A4106BF
:10044000130EA002B70100FF370200FF1302C20320
:10045000B70002019380403037010402130181602C
:10046000DBA1208663964104130EB002B70100FFA2
:10047000370200FF1302A2FF9300F0FF37010100D3
:1004800013013120DB21118663944102130EC00257
:10049000B701FFFF3702FFFF130242009300F0FF96
:1004A0001301F0FFDB211186639441006F0000010E
:1004B000370110F0130141F22320C101370110F080
:1004C000130101F2232001001300000013000000BB
:1004D00013000000130000001300000013000000D0
:040000058000000077
:00000001FF
