:0200000480007A
:10000000370100801301010BE7000100130000001D
:1000100000000000000000000000000000000000E0
:10002000232E11FE232C51FE232A61FE232871FE6C
:100030002326A1FE2324B1FE2322C1FE2320D1FECC
:10004000232EE1FC232CF1FC232A01FD232811FDA2
:100050002326C1FD2324D1FD2322E1FD2320F1FD30
:10006000130101FCEF3090028320C103832281033E
:1000700003234103832301030325C1028325810256
:1000800003264102832601020327C1018327810140
:100090000328410183280101032EC100832E810022
:1000A000032F4100832F010013010104730020304E
:1000B000972100009381815F17110000130181488F
:1000C00017250000130505DF938501836308B5003C
:1000D00023200500130545006FF05FFF1775000032
:1000E000130585951301C1FF977500009385C5948D
:1000F000630EB50083260500130545002320A100EB
:10010000E7800600032501006FF01FFE1301410088
:10011000371500001305058873104530372500009A
:100120001305858073100530EF5050726F0000008A
:080130000000000000000000C7
:10154000366B20706572666F726D616E63652072B6
:10155000756E20706172616D657465727320666F5F
:101560007220636F72656D61726B2E0A000000005D
:10157000366B2076616C69646174696F6E20727578
:101580006E20706172616D657465727320666F7232
:1015900020636F72656D61726B2E0A0050726F6608
:1015A000696C652067656E65726174696F6E207223
:1015B000756E20706172616D657465727320666FFF
:1015C0007220636F72656D61726B2E0A00000000FD
:1015D000324B20706572666F726D616E636520724A
:1015E000756E20706172616D657465727320666FCF
:1015F0007220636F72656D61726B2E0A00000000CD
:10160000324B2076616C69646174696F6E2072750B
:101610006E20706172616D657465727320666F72A1
:1016200020636F72656D61726B2E0A005B25755DBC
:101630004552524F5221206C6973742063726320AB
:10164000307825303478202D2073686F756C6420D5
:101650006265203078253034780A00005B25755D9E
:101660004552524F5221206D617472697820637225
:101670006320307825303478202D2073686F756CA6
:1016800064206265203078253034780A000000003C
:101690005B25755D4552524F52212073746174650C
:1016A0002063726320307825303478202D207368D1
:1016B0006F756C64206265203078253034780A00BC
:1016C000436F72654D61726B2053697A65202020EB
:1016D000203A20256C750A00546F74616C2074697F
:1016E000636B732020202020203A20256C750A008F
:1016F000546F74616C2074696D6520287365637321
:10170000293A2025640A0000497465726174696F82
:101710006E732F5365632020203A2025640A000051
:101720004552524F5221204D757374206578656380
:1017300075746520666F72206174206C65617374C6
:10174000203130207365637320666F7220612076CC
:10175000616C696420726573756C74210A00000005
:10176000497465726174696F6E7320202020202097
:10177000203A20256C750A00474343382E332E301B
:1017800000000000436F6D70696C657220766572B1
:1017900073696F6E203A2025730A00002D3E206485
:1017A000656661756C742C20736565206D616B6571
:1017B00066696C6500000000436F6D70696C65724E
:1017C00020666C6167732020203A2025730A000090
:1017D000535441434B0000004D656D6F7279206C8E
:1017E0006F636174696F6E20203A2025730A0000D0
:1017F00073656564637263202020202020202020F0
:10180000203A203078253034780A00005B25645D6A
:101810006372636C697374202020202020203A209A
:101820003078253034780A005B25645D6372636D1F
:10183000617472697820202020203A203078253089
:1018400034780A005B25645D637263737461746548
:101850002020202020203A203078253034780A00BB
:101860005B25645D63726366696E616C2020202075
:1018700020203A203078253034780A00436F727285
:10188000656374206F7065726174696F6E20766134
:101890006C6964617465642E20536565205245410E
:1018A000444D452E6D6420666F722072756E206106
:1018B0006E64207265706F7274696E672072756CE9
:1018C00065732E0A000000004572726F7273206407
:1018D000657465637465640A0000000043616E6EA0
:1018E0006F742076616C6964617465206F706572D5
:1018F0006174696F6E20666F72207468657365200D
:10190000736565642076616C7565732C20706C65F9
:1019100061736520636F6D706172652077697468AB
:1019200020726573756C7473206F6E2061206B6E0E
:101930006F776E20706C6174666F726D2E0A000096
:1019400053746174696300004865617000000000B1
:10195000537461636B000000566578526973637657
:101960003A2050726F636573736F722072756E6E7A
:10197000696E67206174202575204D487A0A000041
:1019800056657852697363763A2045786563757455
:10199000696E6720636F72656D61726B20284E758A
:1019A0006D626572206F6620697465726174696F1B
:1019B0006E732064796E616D6963616C6C7920630C
:1019C000616C63756C61746564292E205468697359
:1019D000206D61792074616B6520736F6D65207473
:1019E000696D652E2E2E0A0A000000000A566578E1
:1019F00052697363563A20416C6C207265706F7245
:101A0000746564206E756D62657273206F6E6C799B
:101A10002073686F772074686520696E74656765E8
:101A20007220706172742E0A0A000000083900806A
:101A300008390080B8390080B8390080DC3900806E
:101A4000101B0080181B0080201B0080281B0080BA
:101A5000E01A0080EC1A0080F81A0080041B008055
:101A6000B01A0080BC1A0080C81A0080D41A008006
:101A7000801A00808C1A0080981A0080A41A0080B6
:101A800054302E33652D3146000000002D542E5465
:101A90002B2B5471000000003154332E3465347AFE
:101AA0000000000033342E30652D545E000000002D
:101AB000352E353030652B33000000002D2E3132AD
:101AC00033652D32000000002D3837652B38333256
:101AD000000000002B302E36652D31320000000052
:101AE00033352E3534343030000000002E3132339F
:101AF00034353030000000002D3131302E37303099
:101B0000000000002B302E3634343030000000004E
:101B10003530313200000000313233340000000033
:101B20002D383734000000002B3132320000000025
:101B3000843F0080603F0080683F0080703F0080ED
:101B40007C3F0080543F008018500080A04F0080F0
:101B5000A04F00800C500080A04F0080A04F00805C
:101B6000A04F0080A04F0080A04F0080A04F0080B9
:101B7000A04F008000500080A04F0080F44F0080F4
:101B8000A04F0080A04F0080844F0080405700800D
:101B9000985200809852008098520080985200809D
:101BA000985200809852008098520080985200808D
:101BB000985200809852008098520080985200807D
:101BC000985200809852008098520080985200806D
:101BD000985200809852008098520080985200805D
:101BE0009852008098520080D45000809852008013
:101BF000985200809852008098520080985200803D
:101C0000985200809852008098520080C8540080FA
:101C100098520080505200802457008098520080D3
:101C2000985200809852008098520080245700807B
:101C300098520080985200809852008098520080FC
:101C400098520080445200802852008098520080B0
:101C500098520080145100809852008008510080F2
:101C60009852008098520080BC54008040530080FD
:101C7000A0520080A0520080A0520080A05200809C
:101C8000A0520080A0520080A0520080A05200808C
:101C9000A0520080A0520080A0520080A05200807C
:101CA000A0520080A0520080A0520080A05200806C
:101CB000A0520080A0520080A0520080A05200805C
:101CC000A0520080A0520080D8500080A052008016
:101CD000A0520080A0520080A0520080A05200803C
:101CE000A0520080A0520080A0520080A454008026
:101CF000A05200805452008028530080A0520080DF
:101D0000A0520080A0520080A05200802853008082
:101D1000A0520080A0520080A0520080A0520080FB
:101D2000A0520080485200802C520080A0520080B7
:101D3000A052008018510080A05200800C510080F9
:101D4000A0520080A0520080DC500080303132333D
:101D50003435363738396162636465666768696A45
:101D60006B6C6D6E6F707172737475767778797A4B
:101D700000000000303132333435363738394142D3
:101D8000434445464748494A4B4C4D4E4F505152AB
:101D9000535455565758595A000000003C4E554C64
:101DA0004C3E000000010202030303030404040488
:101DB00004040404050505050505050505050505D7
:101DC00005050505060606060606060606060606B7
:101DD00006060606060606060606060606060606A3
:101DE0000606060607070707070707070707070787
:101DF0000707070707070707070707070707070773
:101E00000707070707070707070707070707070762
:101E10000707070707070707070707070707070752
:101E20000707070708080808080808080808080836
:101E30000808080808080808080808080808080822
:101E40000808080808080808080808080808080812
:101E50000808080808080808080808080808080802
:101E600008080808080808080808080808080808F2
:101E700008080808080808080808080808080808E2
:101E800008080808080808080808080808080808D2
:101E900008080808080808080808080808080808C2
:101EA00008080808000000000100000066000000AB
:101ED800130101FE23282101232E1100232C810048
:101EE800232A9100232631010314050093577440D7
:101EF80093F717001379F407639E0704938405008A
:101F08009355344093F5F500939745001377740083
:101F1800B3E5B7009309050083D78403630C07046E
:101F280093061000630AD708131504011355050119
:101F380013090400938507001379F907137404F053
:101F4800EF20001833648900239CA402136404085A
:101F5800239089008320C10103248101130509000E
:101F680083244101032901018329C10013010102CE
:101F780067800000930620021387050063D4D5000C
:101F880013072002839624000396040083A54401C6
:101F980003A584011377F70FEF10905983D7E40353
:101FA800131905011359094163940700239FA402DB
:101FB80083D784036FF01FF8138607001385840204
:101FC800EF10403983D7C403131905011359094188
:101FD800E39007FE83D78403239EA4026FF09FF546
:101FE800130101FE232A9100232821012324410102
:101FF800232E1100232C8100232631010314050010
:1020080013890500930406009357744093F717004B
:10201800137AF407639C07049355344093F5F5004D
:102028009397450013777400B3E5F500930905000D
:10203800835786036300070C930610006300D714C8
:102048001315040113550501130A040093850700AD
:10205800137AFA07137404F0EF20800633648A00B9
:10206800239CA40213640408239089000314090024
:102078009357744093F717009379F407639A07040A
:102088009355344093F5F500939745001377740002
:10209800B3E5F50083D784036300070A93061000AD
:1020A8006302D710131504011355050193090400A1
:1020B8009385070093F9F907137404F0EF204000A3
:1020C80033E48900239CA4021364040823108900C4
:1020D8008320C1010324810133053A41832441014E
:1020E800032901018329C100032A81001301010288
:1020F80067800000930620021387050063D4D5008B
:1021080013072002839624000396040083A5440144
:1021180003A584011377F70FEF10904183D7E403E9
:10212800131A0501135A0A4163940700239FA40256
:1021380083D784036FF09FF193062002138705006D
:1021480063D4D50013072002839624000396040065
:1021580083A5440103A584011377F70FEF10503DC1
:1021680083D7E4039319050193D9094163940700C0
:10217800239FA40283D784036FF09FF3138607007D
:1021880013858402EF10001D83D7C403131A0501B9
:10219800135A0A41E39E07F883D78403239EA402B7
:1021A8006FF0DFEA1386070013858402EF10801AA8
:1021B80083D7C4039319050193D90941E39C07FA0E
:1021C80083D78403239EA4026FF09FEE630A060060
:1021D80003152500839725003305F5406780000027
:1021E8008317050013970701135707011357870033
:1021F80093F707F0B3E7E7002310F500839705008E
:1022080013970701135707011357870093F707F030
:10221800B3E7E7002390F500031525008397250011
:102228003305F54067800000839705002310F5000B
:10223800839725002311F50067800000130101FA38
:10224800232C8103232E1104232C8104232A910497
:10225800232821052326310523244105232251055E
:1022680023206105232E7103232A91032328A10328
:102278002326B10383184500232A0100130C050007
:1022880003244502635810392326B10013060000C1
:10229800130E000013050000130800008327C10077
:1022A8009376F60F232AD10063C8072A630E045ECB
:1022B80003274400938607009307040003172700A9
:1022C800631CD7006F00C00103A747008326C10025
:1022D800031727006306D70083A70700E39607FEC6
:1022E800930600006F00C000930604001304070063
:1022F800032704002320D400E31807FE6388072877
:1023080003A7470013051500131505010317070058
:102318001355050193761700638C060013579740F1
:10232800137717003307E80013180701135808013B
:1023380083A60700638C060003A7060023A0E70016
:102348008327040023A0F6002320D4008327C1009C
:1023580063CA0700138B170093170B0193D7074124
:102368002326F1001306160013160601135606411C
:10237800E396C8F293172500B387C741B307F8005F
:102388009397070193D70701232EF100634CB028D8
:10239800832704009304040003A9070003A7470048
:1023A8008326490023A2D7002322E90003A70700B8
:1023B8000327070023A0E7008327C1002320090083
:1023C80063CE071283A744000327C1008397270021
:1023D800638AE70083A40400E39604FE83240400D0
:1023E80063820402832744008325C1010395070003
:1023F800EF20004683A40400232EA100E39404FEEA
:102408008324040083A74400032749001303100012
:102418002322F90083A7040023A2E4009308000004
:102428002320F90023A02401130E000093040000C8
:10243800130F1000130E1E009306040093070000EC
:1024480083A606009387170063860600E31AF3FE47
:102458009307030013070400130603001384060000
:10246800638C0706630E060A630C040A832547007B
:1024780003254400839605001398060113580801A4
:102488001358880093F606F0B3E606012390D500AA
:1024980083160500831E25001398060113580801AA
:1024A80093F606F013588800B3E606012310D5000A
:1024B80083962500B386D6416354D006930604005C
:1024C800032404001306F6FF6384080223A0D8003F
:1024D80093880600E39807F8630C0604630C040469
:1024E800930604001306F6FF03240400E39008FE95
:1024F80093840600938806006FF0DFFD83A74400ED
:102508000327410183C70700E38EE7EC83A4040097
:10251800E39604FE83240400E39604EC6FF09FEE38
:10252800930607009387F7FF032707006FF0DFF98B
:10253800E31204F023A00800630EEE071313130040
:102548006380042813840400130E0000930800001D
:10255800930400006FF01FEE63080434032744005F
:102568009307040003470700639CE6006FF05FD7FA
:1025780003A747008326410103470700E302D7D694
:1025880083A70700E39607FE6FF09FD503A74600D1
:1025980093071E00139E070103071700135E0E0121
:1025A800137717003307E8001318070113580801B9
:1025B8006FF0DFD903A404006304042E83A744004A
:1025C8008325C10103950700EF2080280324040018
:1025D800232EA100E31404FE8320C10503248105F2
:1025E80083244105032901058329C104032A8104A1
:1025F800832A4104032B0104832BC103032C810389
:10260800832C4103032D0103832DC102130101060D
:10261800678000002326B100232E0100E35AB0D6BC
:102628006300041A930710002324F10093078C0217
:10263800232CF100130D04001309000013040000FB
:1026480023280100130A100083270101930D0D00B0
:10265800930B0000938717002328F10083AD0D002A
:10266800938B1B0063860D0083278100E398FBFE94
:10267800832C810063880B0E63880C1063860D1011
:10268800832A4D0083A94D0083940A0093F7040818
:1026980013FBF4076398070493D5344093F5F500CA
:1026A8009397450013F77400B3E5F50083578C033F
:1026B8006306071A630047191395040113550501AA
:1026C800138B040093850700EF10901F137BFB0703
:1026D80093F804F0B3681B01231CAC0293E80808C4
:1026E80023901A01839A090093F70A0893F4FA07CA
:1026F8006398070493D53A4093F5F50093974500FE
:1027080013F77A00B3E5F50083578C036302070ECD
:10271800630C470B13950A011355050193840A00AE
:1027280093850700EF10D01993F4F40793F80AF093
:10273800B3E81401231CAC0293E80808239019019C
:10274800B3049B406352900493870D0083AD0D0042
:10275800938CFCFF630409022320F9001389070006
:10276800E39C0BF0638A0C02638C0D0293870D00C7
:10277800938CFCFF83AD0D00E31009FE1384070062
:10278800138907006FF0DFFD93070D00938BFBFFA4
:10279800032D0D006FF01FFC138D0D00E3960DEA5D
:1027A800032701012320090093071000E302F7BE65
:1027B80083278100939717002324F100E31C04E684
:1027C80023200000730010000325810113860700F1
:1027D800EF0050388357CC039314050193D4044178
:1027E8006396070483578C03231EAC026FF05FF3D4
:1027F800930620021387050063D4D500130720022F
:1028080083162C0003160C0083254C0103258C012C
:102818001377F70FEF10C0518357EC03931405019A
:1028280093D4044163940700231FAC0283578C039D
:102838006FF01FEF0325810113860700EF00903129
:102848008357CC03131B0501135B0B4163960704E5
:1028580083578C03231EAC026FF0DFE69306200239
:102868001387050063D4D5001307200283162C00B4
:1028780003160C0083254C0103258C011377F70FF1
:10288800EF10004B8357EC03131B0501135B0B413F
:1028980063940700231FAC0283578C036FF09FE2F9
:1028A8000325C1016FF05FD3832700007300100078
:1028B800930740013355F50223A00500B787FFFFB2
:1028C8001388070893860501938885001305E5FF9B
:1028D800131F3500338FE50123A2E50123110F00F3
:1028E80003A74500931F2500B30FFF01231007011D
:1028F80013034F0063F2E62313088F0003A70500B4
:102908006374F82323A4E50023A0150123A665001A
:102918001307F0FF93C7F7FF2312EF002313FF00FD
:1029280003A70500630A050693130601B782FFFF94
:1029380093D303019308000093C2F2FF138E86001D
:102948006378EE05930E480063F4FE0513930801BF
:1029580013530301B34773009397370093F787071F
:102968001373730023A0E600B3E7670023A0D50024
:102978001397870023A20601B367F7002310F80016
:102988002311580003A7050013880E0093060E00B4
:1029980093881800E31415FB83270700638A07024E
:1029A800930750003355F502374300009306100093
:1029B8001303F3FF8328470063F0A6122391D8007E
:1029C800032707009386160083270700E39407FE72
:1029D800930F1000930310009387050093080000DD
:1029E80093050000130F0000130F1F001385070045
:1029F80013070000032505001307170063040500EB
:102A0800E31AF7FF9386070013860F009307050064
:102A1800630C0706630C0608638A070803A34600CD
:102A280003AE4700031803001315080113550501E9
:102A380013558500137808F03368A80023100301A4
:102A480003180E0083122E00931E080193DE0E0158
:102A5800137808F093DE8E003368D80123100E0136
:102A680003152300330555406352A004138807005B
:102A780083A707001306F6FF6384080223A0080152
:102A880093080800E31807F8630A0602638A070236
:102A9800138807001306F6FF83A70700E39008FED4
:102AA80093050800930808006FF0DFFD13880600FF
:102AB8001307F7FF83A606006FF01FFCE39607F2E3
:102AC80023A0080063067F04939F1F00E39605F088
:102AD8002320000073001000139806011358080102
:102AE800930718009397870093F707703348C80037
:102AF800B3E70701B3F767002391F800032707003E
:102B08009386160083270700E39607EA6FF05FECC9
:102B1800138505006780000003A70500130803005C
:102B2800938608006FF01FE01308030093860800DF
:102B38006FF05FDF032806009308880063F6E80457
:102B480003A70600130747006370F7042320160144
:102B5800832705002320F8002320050183A706000A
:102B6800130508002322F8009387470023A0F600E6
:102B780003970500832748002390E7000397250063
:102B88002391E70067800000130800001305080080
:102B9800678000000327050083264500930705008A
:102BA800032647001305070023A2C7002322D700E6
:102BB80083A6070083A6060023A0D70023200700CA
:102BC8006780000003A74500832645002322E5000F
:102BD80003A7050023A2D5002320E50023A0A50014
:102BE8006780000003972500634807026304050215
:102BF8008327450083972700639AE7006F00000545
:102C080083274500839727006386E700032505008F
:102C1800E31805FE67800000E30E05FE83274500E4
:102C28000397050083C70700639AE7006F00400217
:102C38008327450083C707006388E700032505004D
:102C4800E31805FE6FF01FFD678000006780000035
:102C58006780000063000502130700006F00800012
:102C680013850700832705002320E50013070500C7
:102C7800E39807FE6780000063040514130101FD53
:102C8800232A51012328610123267101232481016C
:102C98002320A10123261102232481022322910249
:102CA80023202103232E3101232C410123229101CA
:102CB800130B0500938B0500130C0600930A1000F4
:102CC800130D1000130A0B00930C000013090000E9
:102CD800130B0000938C1C0013040A0093040000DB
:102CE800032404009384140063040400E39A54FF4B
:102CF80093890A00638E0402638E0904630C04043A
:102D08008325440003254A0013060C00E7800B00C6
:102D18006352A00493070400032404009389F9FF75
:102D2800630409022320F90013890700E39604FCD1
:102D3800638A0902630C0402930704009389F9FF6C
:102D480003240400E31009FE138B0700138907000E
:102D58006FF0DFFD93070A009384F4FF032A0A004B
:102D68006FF01FFC130A0400E31604F62320090081
:102D7800638AAC01939A1A00E3160BF4232000002F
:102D8800730010008320C1020324810213050B0085
:102D980083244102032901028329C101032A8101F5
:102DA800832A4101032B0101832BC100032C8100DD
:102DB800832C4100032D01001301010367800000EB
:102DC8002320000073001000130101FF2324810059
:102DD8002322910023261100232021010329C50164
:102DE800232C0502232E050213040500930400007A
:102DF800630009049305100013050400EFF00FC4E5
:102E080083558403EF10C02B231CA4029305F0FF05
:102E180013050400EFF08FC283558403EF10402A96
:102E2800231CA4026384040293841400E31499FC11
:102E38008320C10003248100832441000329010069
:102E4800130500001301010167800000231DA4027F
:102E580093071000E30EF9FC930410006FF09FF93C
:102E6800130101FD2322910223261102B7F4FFFF6B
:102E78002324810223202103232E3101232C410105
:102E8800232A51012328610123267101232481016A
:102E9800232291012320A101B3649700630405480C
:102EA80013191500B308A040138C050093190701E6
:102EB800B3052601930C0600130B0600939E180019
:102EC80013030500938B060093D9090113860500A7
:102ED80013080000939828003385CE009307050057
:102EE80083D6070093872700B386D900239FD7FE90
:102EF800E398C7FE130418003306154163068300E0
:102F0800130804006FF05FFD330F8040131A24008C
:102F1800930A0C0013050C00130E000013132F0066
:102F2800B388BE0013060500938708008396070040
:102F38001306460093872700B386E602232ED6FEA3
:102F4800E396B7FE93071E0033054501B385684035
:102F580063060E01138E07006FF09FFC330D4C01C2
:102F680093080D00130500009307000013060000E6
:102F7800930E0000131F3F00330E130193060E003B
:102F88006F0080011315050193864600135505410E
:102F980093070700638E160303A7060013150501A0
:102FA80013550501B3A7E7003306E6009305A5000E
:102FB8003305F500E3D8C4FC139505019386460054
:102FC800135505411306000093070700E39616FD05
:102FD80093861E00B308EE4163860E01938E0600A9
:102FE8006FF09FF993050000EF1090069305050018
:102FF80013830C0033852B0193080C0023A00800D1
:1030080093870B00130603009306000003170600BE
:103018000398070093872700130626003307070342
:10302800B386E60023A0D800E392A7FE9388480061
:1030380033032301E394A8FD130E0C0013050000CD
:1030480093070000930600001303000013080E0006
:10305800130600006F00C0011315050113061600C2
:103068001355054113084800930707006370860449
:10307800032708001315050113550501B3A7E70039
:10308800B386E6009308A5003305F500E3D6D4FC23
:103098001395080113061600135505419306000001
:1030A8001308480093070700E36486FC1303130022
:1030B800330E4E01E36C83F8EF1080799305050019
:1030C800930F0C00938E0C00130F000013850B0058
:1030D80093880F001303000023A0080013080500BD
:1030E80013860E00930600001307000083170600DE
:1030F800031E08001307170013062600B387C7032B
:1031080033082801B386F60023A0D800E36087FEC1
:10311800130313009388480013052500E36E83FA10
:10312800130F1F00B38E2E01B38F4F01E3608FFA88
:10313800130E0C001305000093070000930600000F
:103148001303000013080E00130600006F00C001EF
:1031580013150501130616001355054113084800F9
:1031680093070700637086040327080013150501F9
:1031780013550501B3A7E700B386E6009308A50039
:103188003305F500E3D6D4FC1395080113061600A1
:1031980013550541930600001308480093070700DC
:1031A800E36486FC13031300330E4E01E36C83F8CB
:1031B800EF10006A9305050013060000938E0B00BC
:1031C800130E0C001305000023200E0013830E00BD
:1031D80093880C00130800009306000003170300EF
:1031E800839708009386160093882800B387E70220
:1031F8003303230113D7274093D757401377F7009A
:1032080093F7F707B307F7023308F80023200E01F6
:10321800E3E686FC13051500130E4E00938E2E0070
:10322800E36485FA13061600B38C2C01330C4C01A9
:10323800E36686F813050000930700009306000074
:103248001303000013880A00130600006F00C00172
:1032580013150501130616001355054113084800F8
:1032680093070700637086040327080013150501F8
:1032780013550501B3A7E700B386E6009308A50038
:103288003305F500E3D6D4FC1395080113061600A0
:1032980013550541930600001308480093070700DB
:1032A800E36486FC13031300B38A4A01E36C83F8D2
:1032B800EF10005A1306000093070B009306000056
:1032C80003D70700938727009386160033073741F3
:1032D800239FE7FEE3E686FE13061600330B2B0159
:1032E800E36C86FC8320C1020324810213150501C7
:1032F80083244102032901028329C101032A810190
:10330800832A4101032B0101832BC100032C810077
:10331800832C4100032D01001355054113010103BE
:103328006780000093050000EF10805293050500A8
:1033380013050000EF10C0519305050013050000A8
:10334800EF1000519305050013050000EF104050E1
:103358006FF05FF9130101FF232481002326110078
:103368001304060013870500832685008325C500FE
:103378000326450003250500EFF09FAE93050400E2
:10338800032481008320C100130101016F10404C08
:10339800130101FF23268100232491002322210108
:1033A8001308050063140600130610009383F5FF45
:1033B80093F3C3FF938443001305000063160800CA
:1033C8006F00000E1305070013071500B307E70287
:1033D80093973700E3E807FFB302A5021309050036
:1033E80093921200B383540063020508370E01005C
:1033F80013141500938F0300130F00001308100017
:10340800B38E7440130EFEFF93850F0093080000DF
:10341800330606039317080193D707013383BE00C9
:103428009385250093881800130818001357F64150
:10343800135707013306E6003376C6013306E64024
:103448003387C7001317070113570701B307F7009E
:10345800239FE5FE93F7F70F2310F300E3EAA8FA9A
:10346800130F1F00B38F8F00E360AFFAB3875300C9
:103478009387F7FF0324C10093F7C7FF938747009B
:1034880023A2960023A0260123A4760023A6F600F3
:103498008324810003294100130101016780000092
:1034A800938363001309F0FF1305F0FF93022000D4
:1034B8006FF0DFF3130F050063080508B30EA04093
:1034C80093182500B3881501939F2E00130300005D
:1034D800130500001307000093050000939E3E00AB
:1034E800338E1F0193070E006F008001131505012D
:1034F800938747001355054113870600638EF8022A
:1035080083A6070013150501135505013327D700B6
:10351800B385D5001308A5003305E500E358B6FCCC
:1035280013150801938747001355054193050000BB
:1035380013870600E396F8FC13031300B308DE4173
:10354800E3106FFA67800000130500006780000031
:10355800630A0504330EA04013181500931E1E00BD
:10356800131F25003308060193080000131E2E00C0
:103578003303D80113860500930703000397070058
:1035880013064600938727003307D702232EE6FE4B
:10359800E316F8FE93881800B385E5013308C341A4
:1035A800E31815FD6780000063060504B308A04012
:1035B8009316150013160601B386D5001393180049
:1035C8001356060193050000939828003308D3008A
:1035D8009307080003D70700938727003307E600FF
:1035E800239FE7FEE398F6FE93851500B30618417E
:1035F800E31EB5FC6780000063080504931E1500F0
:1036080013152500338EA5003383D60123A00500AA
:103618009387060013080600130500000317080027
:103628008398070093872700130828003307170398
:103638003305E50023A0A500E312F3FE93854500BA
:103648003306D601E394C5FD6780000063060508CC
:1036580013131500130101FF23268100130F060021
:10366800330E66001314250093820500B38F66009D
:1036780093030000938E06009388020023A008009D
:1036880093850E0093070F001306000003970700A9
:103698000398050093872700B38565003307070360
:1036A8003306E60023A0C800E312FEFE938E2E0028
:1036B80093884800E394DFFD93831300330F6F0072
:1036C800330E6E00B3828200E31675FA0324C1003C
:1036D8001301010167800000678000006300050A8C
:1036E80013131500130101FF23268100130F060091
:1036F800330E66001314250093820500B38F66000D
:1037080093030000938E06009388020023A008000C
:1037180013880E0013060F00930500000317080016
:10372800831706001306260033086800B387E702EC
:1037380013D7274093D757401377F70093F7F70726
:10374800B307F702B385F50023A0B800E318CEFC51
:10375800938E2E0093884800E39ADFFB938313002F
:10376800330F6F00330E6E00B3828200E31C75F8CE
:103778000324C10013010101678000006780000075
:10378800130500009305000067800000B70702F0EA
:1037980023A0070437460F0023A4070437070100B6
:1037A8001306F62323A0C7001306F7FF23A2C704B6
:1037B8001307270023A0E70403A78704B72700807F
:1037C80023A207EC23A0E7EC67800000B70702F00C
:1037D80003A78704B727008023AE07EA23ACE7EAEC
:1037E80067800000B72700803727008083A587EB14
:1037F800032507EC83A7C7EB032747EC3385A540D0
:10380800B3B5A500B387E740B385B740678000002C
:10381800130101FF1306400693060000232611003A
:10382800EF20801F8320C100130101016780000081
:10383800130101FF232481001304050037250080AC
:10384800930540061305859523261100EF10005CAB
:103858003725008013050598EF10405B930710008B
:103868002300F4008320C100032481001301010117
:103878006780000023000500372500801305C59EDA
:103888006F10C058678000001303F5FF93071000FE
:10389800130E060063FC67149386150093960601C1
:1038A80093D6060193F776009387D7FF939707017E
:1038B800B7250080B728008013D7360013064000CC
:1038C80093D7070113080000938505A49388C8A21D
:1038D800130F8000930EC002137737006366F60A51
:1038E80093972700B387170183A7070013172700AB
:1038F8003387E50093861600930F980067800700CA
:10390800939606010327070193D6060163FA6F0A07
:103918009302800083430700B3070E0123807700DA
:1039280003481700A38007010348270023810701E4
:1039380003483700A38107016384C2020348470094
:103948002382070103485700A38207010348670041
:10395800238307016396E20103477700A383E70007
:10396800B38757002380D70193F776009387D7FF53
:103978009397070113D7360093D7070113880F00D1
:1039880013773700E37EF6F41317270093861600A3
:103998003387E50093960601930F58000327070025
:1039A80093D6060163FE6F00930240006FF09FF606
:1039B800939606010327070293D60601E3EA6FF4FC
:1039C8006374A802330605419305000033050E0110
:1039D8006F208059939606010327070393D60601A3
:1039E800E3E86FF2E360A8FE6780000013080000B8
:1039F800330605419305000033050E016F20C056BC
:103A08008327050083C607006388062E1308C002B3
:103A180013871700638E062B83A80500138606FDFF
:103A28001376F60F1303900093881800636CC30A8B
:103A380023A0150183C61700638406169387270001
:103A4800638E0615138606FD1308E002930890009E
:103A58001303C0021376F60F6386060363E0C80CEF
:103A6800834617001386170013870700638806121A
:103A7800638A662A93070600138606FD1376F60FF7
:103A8800E39E06FD83A605019386160023A8D500AC
:103A980083461700638206281307C002138617009F
:103AA8006382E62213085004930890001303C002AF
:103AB800138706FD93F6F60D1377F70F6386060F47
:103AC80063FAE81A83A64501130706009307100056
:103AD8009386160023AAD5002320E5001385070046
:103AE800678000001306B002638AC6041306D0027A
:103AF8006386C6041306E002638CC61883A64500D5
:103B080023A01501930710009386160023A2D50061
:103B18002320E500138507006780000083A60501C0
:103B280013870700930710009386160023A8D50073
:103B38002320E500138507006780000023A01501F6
:103B480083C817006380081C13872700638C081B31
:103B580003A68500938608FD93F6F60F13089000D8
:103B6800130616006370D8029306E0026380D81427
:103B780023A4C500930710002320E5001385070040
:103B88006780000023A4C50083C62700638A060057
:103B98001306C00293071700E396C6EA13870700C7
:103BA800930740006FF0DFF803A7450113071700DC
:103BB80023AAE50083C71700638A07121308C00207
:103BC800130716006386071383A6C500938757FD5E
:103BD80093F7D70F9386160023A6D500638A0700AC
:103BE800930710002320E500138507006780000075
:103BF800834716006388070E130726006384070FA0
:103C080083A68501938707FD93F7F70F9386160020
:103C18009308900023ACD500E3E4F8FC8346260023
:103C2800638E060A930736006388060B1306900016
:103C38009308C002938606FD93F6F60F637ED600BE
:103C480083A6450013870700930710009386160084
:103C580023A2D5006FF0DFED834617001388170005
:103C680013870700638A06066382160B930708000A
:103C78006FF05FFC83C61700130716009307060052
:103C88006382060463826604130607006FF05FE22E
:103C980023A0150183C61700638806021386270030
:103CA80063820603930707006FF0DFDF23A4C500D4
:103CB80083C62700638A06009307C002130617000D
:103CC800E392F6FE13070600930750006FF05FE6D5
:103CD800930700006FF0DFE5138707009307700074
:103CE8006FF01FE5930760006FF09FE4130706006D
:103CF800930730006FF0DFE3138707009307000096
:103D08006FF01FE3930720006FF09FE2130708008E
:103D1800930770006FF0DFE11387070093075000E7
:103D28006FF01FE113070600930740006FF05FE094
:103D3800130101F8232C8106232A91062328210741
:103D4800232631072324410723206107232E7105E9
:103D5800232E1106232251071384050083C505006D
:103D680093040103232801022326810023A20400CF
:103D780023A4040023A6040023A8040023AA040003
:103D880023AC040023AE040023280100232A0100E9
:103D9800232C0100232E01002320010223220102EB
:103DA8002324010223260102930B0500130B0600AE
:103DB800138A06001309070093890700638E051408
:103DC800930AC1009385040013850A00EFF05FC3CE
:103DD80093070105131525003385A7000327C100A4
:103DE800832705FC03470700938717002320F5FC6A
:103DF800E31A07FC23268100B30B740183450400F2
:103E0800637274139306C0029307040033C76501F5
:103E18006382D5022380E7008327C100B387270187
:103E28002326F10063FE770183C5070033C76501C8
:103E3800E392D5FEB38727012326F100E3E677FF57
:103E48008347040023268100930AC100638E07027A
:103E58009385040013850A00EFF09FBA93070105C4
:103E6800131525003385A7000327C100832705FC08
:103E780003470700938717002320F5FCE31A07FC84
:103E880023268100637474039306C00283470400E9
:103E980033C74701638AD7062300E4000324C1001F
:103EA8003304240123268100E36274FF1304010113
:103EB80013890400032504009385090013044400B2
:103EC800EF00004893050500032509001309490080
:103ED800EF00004793090500E39E84FC8320C10797
:103EE8000324810783244107032901078329C10685
:103EF800032A8106832A4106032B0106832BC10569
:103F0800130101086780000033042401232681007F
:103F1800E36E74F76FF09FF9B30BA400E36474EFDA
:103F28006FF0DFF8E39605F26FF05FF89307500043
:103F380063E6A704B7270080938707B31315250006
:103F48003305F5008327050067800700B727008041
:103F580003A587EC6780000003A5C1826780000085
:103F680003A5818267800000B727008003A5C7EA00
:103F78006780000003A541826780000013050000E8
:103F880067800000B346B50093F616001357150076
:103F980093D71500638C0600B7A6FFFF938616001B
:103FA800B3C7D7009397070193D7070133C7E70033
:103FB800137717009356250093D71700630C070053
:103FC80037A7FFFF13071700B3C7E7009397070149
:103FD80093D70701B3C6D70093F6160013573500D9
:103FE80093D71700638C0600B7A6FFFF93861600C9
:103FF800B3C7D7009397070193D7070133C7E700E3
:10400800137717009356450093D71700630C0700E2
:1040180037A7FFFF13071700B3C7E70093970701F8
:1040280093D70701B3C6D70093F616001357550068
:1040380093D71700638C0600B7A6FFFF9386160078
:10404800B3C7D7009397070193D7070133C7E70092
:10405800137717009356650093D71700630C070072
:1040680037A7FFFF13071700B3C7E70093970701A8
:1040780093D70701B3C6D70093F6160013577500F8
:1040880093D71700638C0600B7A6FFFF9386160028
:10409800B3C7D7009397070193D7070193F6170083
:1040A80013D51700638CE600B7A7FFFF93871700A7
:1040B800B347F50013950701135505016780000004
:1040C80033C6A5009376F50F1376160013D716009E
:1040D80093D71500630C060037A6FFFF13061600DA
:1040E800B3C7C7009397070193D7070133C7E70002
:1040F8001376170093D7170013D72600630C060012
:1041080037A6FFFF13061600B3C7C700939707012A
:1041180093D7070133C7E7001377170013D6360084
:1041280093D71700630C070037A7FFFF1307170083
:10413800B3C7E7009397070193D7070133C6C700B2
:104148001376160013D7460093D71700630C0600A2
:1041580037A6FFFF13061600B3C7C70093970701DA
:1041680093D7070133C7E7001377170013D6560014
:1041780093D71700630C070037A7FFFF1307170033
:10418800B3C7E7009397070193D7070133C6C70062
:104198001376160013D7660093D71700630C060032
:1041A80037A6FFFF13061600B3C7C700939707018A
:1041B80093D7070133C7E7001377170093D6760024
:1041C80093D71700630C070037A7FFFF13071700E3
:1041D800B3C7E7009397070193D7070113F71700B1
:1041E80093D71700630CD70037A7FFFF13071700F3
:1041F800B3C7E7009397070193D7070113558500C5
:1042080033C6A7001377F50F1376160093561700D9
:1042180013D51700630C0600B7A7FFFF9387170095
:104228003345F5001315050113550501B3C6A6005E
:1042380093F616009357270013551500638C060054
:10424800B7A6FFFF938616003345D5001315050161
:1042580013550501B347F50093F717009356370038
:1042680013551500638C0700B7A7FFFF9387170046
:104278003345F5001315050113550501B346D5005F
:1042880093F616009357470013551500638C0600E4
:10429800B7A6FFFF938616003345D5001315050111
:1042A80013550501B347F50093F7170093565700C8
:1042B80013551500638C0700B7A7FFFF93871700F6
:1042C8003345F5001315050113550501B346D5000F
:1042D80093F616009357670013551500638C060074
:1042E800B7A6FFFF938616003345D50013150501C1
:1042F80013550501B347F50093F7170013577700D7
:1043080013551500638C0700B7A7FFFF93871700A5
:104318003345F5001315050113550501937715006D
:1043280013551500638CE700B7A7FFFF93871700A5
:104338003345F50013150501135505016780000085
:1043480033C8A5009376F50F1317050113781800E5
:104358001357070113D6160093D71500630C0800EE
:10436800B7A5FFFF93851500B3C7B700939707015B
:1043780093D7070133C6C7009375160093D7170064
:1043880013D62600638C0500B7A5FFFF938515009B
:10439800B3C7B7009397070193D7070133C6C70080
:1043A8001376160093D5360093D71700630C0600D2
:1043B80037A6FFFF13061600B3C7C7009397070178
:1043C80093D70701B3C5B70093F5150013D6460078
:1043D80093D71700638C0500B7A5FFFF93851500D9
:1043E800B3C7B7009397070193D7070133C6C70030
:1043F8001376160093D5560093D71700630C060062
:1044080037A6FFFF13061600B3C7C7009397070127
:1044180093D70701B3C5B70093F5150013D6660007
:1044280093D71700638C0500B7A5FFFF9385150088
:10443800B3C7B7009397070193D7070133C6C700DF
:104448001376160093D6760093D71700630C0600F0
:1044580037A6FFFF13061600B3C7C70093970701D7
:1044680093D7070113F6170093D71700630CD600EC
:10447800B7A6FFFF93861600B3C7D7009397070127
:1044880093D7070113578700B3C6E70093F61600C2
:104498001377F70F1356170093D71700638C06008E
:1044A800B7A6FFFF93861600B3C7D70093970701F7
:1044B80093D7070133C6C700137616009356270013
:1044C80093D71700630C060037A6FFFF13061600E4
:1044D800B3C7C7009397070193D70701B3C6D7009F
:1044E80093F616001356370093D71700638C06000F
:1044F800B7A6FFFF93861600B3C7D70093970701A7
:1045080093D7070133C6C7001376160093564700A2
:1045180093D71700630C060037A6FFFF1306160093
:10452800B3C7C7009397070193D70701B3C6D7004E
:1045380093F616001356570093D71700638C06009E
:10454800B7A6FFFF93861600B3C7D7009397070156
:1045580093D7070133C6C700137616009356670032
:1045680093D71700630C060037A6FFFF1306160043
:10457800B3C7C7009397070193D70701B3C6D700FE
:1045880093F616001357770093D71700638C06002D
:10459800B7A6FFFF93861600B3C7D7009397070106
:1045A80093D7070193F6170093D71700638CE6009B
:1045B80037A7FFFF13071700B3C7E7009397070153
:1045C80093D7070113550501B3C5A7001377F50F56
:1045D8009316050193F5150093D606011356170097
:1045E80013D51700638C0500B7A7FFFF9387170043
:1045F8003345F50013150501135505013346C5006C
:10460800137616009357270013551500630C060000
:1046180037A6FFFF130616003345C500131505011D
:1046280013550501B347F50093F7170013563700E4
:1046380013551500638C0700B7A7FFFF9387170072
:104648003345F50013150501135505013346C5001B
:10465800137616009357470013551500630C060090
:1046680037A6FFFF130616003345C50013150501CD
:1046780013550501B347F50093F717001356570074
:1046880013551500638C0700B7A7FFFF9387170022
:104698003345F50013150501135505013346C500CB
:1046A800137616009357670013551500630C060020
:1046B80037A6FFFF130616003345C500131505017D
:1046C80013550501B347F50093F717001357770003
:1046D80013551500638C0700B7A7FFFF93871700D2
:1046E8003345F5001315050113550501937715009A
:1046F80013551500638CE700B7A7FFFF93871700D2
:104708003345F500131505011355050193D78600A8
:104718003347F5001377170093F7F70F93D6170071
:1047280013551500630C070037A7FFFF1307170081
:104738003345E5001315050113550501B346D500AA
:1047480093F6160013D7270013551500638C06003F
:10475800B7A6FFFF938616003345D500131505014C
:10476800135505013347A7001377170093D6370071
:1047780013551500630C070037A7FFFF1307170031
:104788003345E5001315050113550501B3C6A60009
:1047980093F6160013D7470013551500638C0600CF
:1047A800B7A6FFFF938616003345D50013150501FC
:1047B800135505013347A7001377170093D6570001
:1047C80013551500630C070037A7FFFF13071700E1
:1047D8003345E5001315050113550501B3C6A600B9
:1047E80093F6160013D7670013551500638C06005F
:1047F800B7A6FFFF938616003345D50013150501AC
:10480800135505013347A7001377170093D777008F
:1048180013551500630C070037A7FFFF1307170090
:104828003345E500131505011355050113771500E8
:1048380013551500630CF700B7A7FFFF9387170000
:104848003345F50013150501135505016780000070
:1048580033C6A5001377F50F9317050113761600D5
:1048680093D707019356170013D51500630C06005C
:10487800B7A5FFFF938515003345B500131505014E
:1048880013550501B346D50013F616001355150048
:1048980093562700630C0600B7A5FFFF9385150004
:1048A8003345B5001315050113550501B346D50069
:1048B80093F616001356370013551500638C06003F
:1048C800B7A6FFFF938616003345D50013150501DB
:1048D800135505013346C500137616009356470055
:1048E80013551500630C060037A6FFFF13061600C4
:1048F8003345C5001315050113550501B346D50009
:1049080093F616001356570013551500638C0600CE
:10491800B7A6FFFF938616003345D500131505018A
:10492800135505013346C5001376160093566700E4
:1049380013551500630C060037A6FFFF1306160073
:104948003345C5001315050113550501B346D500B8
:1049580093F616001357770013551500638C06005D
:10496800B7A6FFFF938616003345D500131505013A
:10497800135505019376150013551500638CE60051
:1049880037A7FFFF130717003345E5001315050187
:104998001355050193D787003347F50013771700A0
:1049A80093F7F70F93D6170013551500630C0700FC
:1049B80037A7FFFF130717003345E5001315050157
:1049C80013550501B3C6A60093F6160013D72700A2
:1049D80013551500638C0600B7A6FFFF93861600D3
:1049E8003345D50013150501135505013347E50077
:1049F8001377170093D6370013551500630C07007B
:104A080037A7FFFF130717003345E5001315050106
:104A180013550501B346D50093F6160013D7470082
:104A280013551500638C0600B7A6FFFF9386160082
:104A38003345D50013150501135505013347E50026
:104A48001377170093D6570013551500630C07000A
:104A580037A7FFFF130717003345E50013150501B6
:104A680013550501B346D50093F6160013D7670012
:104A780013551500638C0600B7A6FFFF9386160032
:104A88003345D50013150501135505013347E500D6
:104A98001377170093D7770013551500630C070099
:104AA80037A7FFFF130717003345E5001315050166
:104AB800135505011377150013551500630CF700FE
:104AC800B7A7FFFF938717003345F50013150501B6
:104AD800135505016780000013050000678000007A
:104AE800130101F6232A910823244109232E1108D2
:104AF800232C81082328210923263109232251093F
:104B080023206109232E7107232C8107232A91076B
:104B18002328A1072326B10713F8070493040500E7
:104B2800130A06006306081EB7280080938848D732
:104B380013FD070163100D1C13F6170013FE170170
:104B4800130C0003630C061A13F6270093FD0702E3
:104B58006306061C63C8051C13F64700631A062083
:104B680093F7870013030000638607009386F6FF18
:104B780013030002638C0D0093070001630CFA20F5
:104B880093078AFF93B71700B386F6406394051A14
:104B980093070003230EF10013090000930C100083
:104BA800930910001304C101938A0C0063D4EC002C
:104BB800930A0700338B5641930BFBFF63160E02D3
:104BC800635C601F13060B00138504009305000245
:104BD80023266100EF1040390323C100B384640128
:104BE800930BE0FF130BF0FF6306030023806400C0
:104BF80093841400638A0D00930780006300FA1AF7
:104C080093070001630CFA16631C0D026350601BC6
:104C180013CAFBFF135AFA4133FA4B01130D1A005A
:104C2800138BFBFF1385040013060D0093050C007E
:104C3800330B4B41EF104033B384A401930BFBFFBC
:104C480063DE5C01B38A9A411385040013860A0067
:104C580093050003EF104031B38454013306240157
:104C68001387040013051000130717008345060077
:104C7800B307E540B3872701A30FB7FEB387F40056
:104C88001306F6FFE342F0FEB38434016354600375
:104C980093C7FBFF93D7F74133F4FB0013041400C9
:104CA800138504001306040093050002EF10C02BBF
:104CB800B38484008320C109032481091385040077
:104CC80003290109832441098329C108032A81088A
:104CD800832A4108032B0108832BC107032C810772
:104CE800832C4107032D0107832DC1061301010AF7
:104CF8006780000093F7E7FF130E0D0013F62700F7
:104D0800130C000293FD0702630A06006FF09FE48C
:104D1800B72800809388C8D46FF09FE11303000080
:104D28006FF05FE5B305B0409386F6FF1303D0023A
:104D3800E3940DE4130900001304C1016F0080001F
:104D480013890900B3F7450393091900330834019F
:104D580013850500938C0900B387F80083C7070003
:104D6800B3D54503A30FF8FEE37C45FD6FF0DFE301
:104D78009386F6FF1303B0026FF0DFDF930700039B
:104D88002380F40093078007A380F4009384240011
:104D98006FF09FE79386E6FF6FF05FDF93070003EE
:104DA8002380F400938414006FF01FE6138B0B002C
:104DB800938BFBFF6FF0DFE89307EBFF138B0B0080
:104DC800938B07006FF05FE29307A0006300F50282
:104DD800370701F08327470093D7070193F7F70FA9
:104DE800E38A07FE2320A70067800000370701F049
:104DF8008327470093D7070193F7F70FE38A07FE46
:104E08009307D0002320F7006FF09FFC130101E700
:104E18002324811523261116232481162322911673
:104E280023202117232E3115232C4115232A511510
:104E38002328611523267115232291152320A115F6
:104E4800232EB113232AB116232CC116232ED116D3
:104E58002320E1182322F1182324011923261119EC
:104E680083470500130C4117232A8101E380072695
:104E780013090103B72B0080372A0080B729008067
:104E880013040500130B0900938B8BB4130ACAB8DB
:104E98009389C9D4B72A008013075002638AE70AA6
:104EA8002300FB0083471400130B1B00130414009A
:104EB800E39407FE23000B00834601036382064048
:104EC800130610009305A000370701F01308D0005F
:104ED800330626416382B6068327470093D7070126
:104EE80093F7F70FE38A07FE3305C9002320D7009D
:104EF8001309190083460900E39E06FC8320C116A6
:104F08000324811683244116032901168329C11518
:104F1800032A8115832A4115032B0115832BC114FC
:104F2800032C8114832C4114032D0114832DC113E8
:104F380013010119678000008327470093D70701F1
:104F480093F7F70FE38A07FE232007016FF0DFF8D6
:104F5800834514009306000193070000138705FE9C
:104F68001377F70F9304140063E8E602131727007A
:104F780033077701032707006700070093E7170047
:104F8800138404008345140093041400138705FE5A
:104F98001377F70FE3FCE6FC138705FD1377F70F8C
:104FA8009306900063FAE60C1307A0029306F0FF3D
:104FB800638EE50E1306E0021307F0FF6388C50849
:104FC80013F6F50D1305C004630AA6041386F5FB52
:104FD8001376F60F13057003636CC52A13162600A3
:104FE80033064601032606006700060093E707011B
:104FF800138404006FF01FF993E74700138404003B
:105008006FF05FF893E70702138404006FF09FF7CF
:1050180093E78700138404006FF0DFF603C81400D9
:1050280013057003938C14001306F8FB1376F60F20
:105038006364C52637250080131626001305C5C6E8
:105048003306A600032606006700060083C5140081
:105058001306900013851400138705FD1377F70FC7
:105068006374E6261307A002638CE5289304050001
:10507800130700006FF0DFF493060000130690009A
:1050880013972600B306D70093841400939616004E
:10509800B386B60083C50400938606FD138705FD15
:1050A8001377F70FE37EE6FC6FF0DFF083260C0042
:1050B8009304240083452400130C4C00E3DC06EE23
:1050C800B306D04093E707016FF0DFEE938C04003E
:1050D80093E707041306000113054C0083250C0011
:1050E800130C050013050B00EFF09F9F83C71C00EE
:1050F800130B050013841C00E39007DA6FF09FDBA5
:10510800938C04001306A0006FF01FFD938C04001D
:1051180003240C00130C4C006300046803460400CD
:10512800E3080608E3060708130604006F00C0003A
:10513800B305E6406388850013061600834506001C
:10514800E39805FE93F70701B3048640638A076472
:105158006352900A1307440013064B003337EB00E1
:105168003336C4009387F4FF13471700134616001D
:1051780093B797003367C70093C71700B3F7E700E3
:10518800E3860706B3678B0093F73700E3900706BB
:1051980093F5C4FF9307040013070B00B38585003C
:1051A80003A607001307470093874700232EC7FE6F
:1051B800E398F5FE93F7C4FF3304F4003306FB00CD
:1051C80033079B0063869702034504009385170005
:1051D8002300A60063DE950083451400938727000B
:1051E800A300B60063D69700834724002301F60086
:1051F800130B070013841C0063DED400B3849640AD
:1052080013050B001386040093050002EF00D05528
:10521800330B9B0083C71C00E39007C86FF09FC93E
:10522800938C04001306F0FF6382C65483250C0098
:1052380013060001130C4C006FF0DFEA938C040096
:10524800130680006FF05FE9938C040093F7070161
:105258009384F6FF6382075283270C0013071B0011
:10526800130C4C002300FB0013841C00635490763D
:10527800138604009305000213050700EF00D04EC3
:1052880083C71C00330B9500E39807C06FF09FC2DB
:1052980013880500938C04009307500213071B0022
:1052A800630AF84A2300FB0003C80C00631E084881
:1052B800130B070023000B0083460103E39206C08B
:1052C800130500006FF09FC3130700001308900038
:1052D800131627003307E6001305150013171700E8
:1052E8003307B70083450500130707FD138605FD3F
:1052F8001376F60FE37EC8FC930405006FF05FCCCD
:1053080003270C0083C52400130C4C001346F7FF39
:105318001356F6413377C700938424006FF05FCAB1
:105328001308C00693E7270013054C001306A000D6
:10533800E38605DB6F00403F1306C00603270C0019
:1053480093E70704130C4C006398C5583726008070
:10535800130646D70348070003451700034E2700E6
:105368000343370083484700834557009353480059
:1053780093524500935F4E00135F430093DE48004D
:105388001378F8001375F500137EFE001373F3000D
:1053980093F8F80013D74500330806013305A60033
:1053A800B3037600B3025600B30FF601330EC601FD
:1053B800330FE60133036600B30ED601B3081601B6
:1053C80003440800834C050083C3030083C2020022
:1053D80083CF0F00034E0E00034F0F00034303005B
:1053E80083CE0E0003C808003305E6000345050018
:1053F8001307A00393F5F500A30C8100230DE1002A
:10540800A30EE1002300E102A301E1022303E1026C
:10541800230C7100A30D5100230E9101230FF101FC
:10542800A30FC101A300E103230161022302D103F9
:10543800A30201033307B600A303A1020347070031
:1054480093F707011384F6FF2304E102639A0742E6
:105458009307100163D0D7421384F6FE13060400A5
:105468009305000213050B002326D100EF00D02F6F
:10547800130610019305810133058B00EF00101D01
:105488008326C1003307DB0083C72400138424006C
:10549800130B0700E39207A06FF0DFA11306C00605
:1054A80003270C00130C4C006398C54213860900AF
:1054B8006FF05FEA938C0400130600016FF0DFC100
:1054C80003270C00130C4C00034607006304063046
:1054D8009305300663DEC54813054006B368A60287
:1054E8001308A000930540001304300013032000A4
:1054F8003346A60233C508033386C90003460600AF
:10550800230CC1003386A9000345060033E60803CF
:10551800A30CA1003386C900034606001305011336
:10552800330365002304C3EE130501130346170074
:10553800330585001308E002230405EF6300062CF9
:10554800130830066356C83C130840069308A000A9
:10555800130E0113330EBE009305340033630603A4
:1055680033460603334813033386C900034606004F
:105578002304CEEE3386090103480600336613037D
:10558800230505EF3386C9000345060013060113FA
:105598003306B600138415002304A6EE9305011301
:1055A80003462700338585009305E0022304B5EE02
:1055B80093051400630C0626130830066352C8329C
:1055C800130840069308A000130E0113330EBE0003
:1055D8009305340033630603334606033348130345
:1055E8003386C900034606002304CEEE338609013C
:1055F8000348060033661303230505EF3386C90005
:1056080003450600130601133306B600138415007C
:105618002304A6EE0347370013060113B3058600DB
:105628001306E0022384C5EE13061400630807225C
:10563800130530066356E530130540061308A0002D
:10564800130301133303C30013063400B368A7021E
:105658003347A70233C508033387E9000347070028
:105668002304E3EE3387A9000345070033E7080363
:105678002385A5EE3387E900834507001307011347
:105688003307C700130416002304B7EE93F7070186
:10569800938CF6FF639A07026358D436338D86409D
:1056A80013050B0013060D00930500022326D100F5
:1056B800EF00900B8326C100330BAB01B306D44037
:1056C800B3869601938CF6FF13050B0013060400AE
:1056D800930581012326D100EF0040778326C1007E
:1056E80033078B00130B07006352D4021306000222
:1056F80093061000130B1B00B3876641B38797010D
:10570800A30FCBFEB307F700E346F4FE83C71400EC
:1057180013841400639207F86FF0CFF993E727001A
:1057280013054C00938C040083250C001306A0007D
:10573800130C05006FF01F9B03270C0093E7070469
:10574800130C4C006FF05FD893072B00130B070066
:105758001387070023000B0183C71C0013841C0058
:10576800130B0700639A07F26FF0CFF493E7170063
:10577800930680006FF09FAB635490241386040057
:1057880013050B0093050002330B9B00EF00C07D4F
:105798009304F0FF6FF05FAC1384CAD96FF09F9841
:1057A800138DF6FF63D0D424B38D964013050B00F8
:1057B80013860D00930500022326D100EF00C07A5E
:1057C8008326C100330BBB01B386D440B386A60140
:1057D8006FF01F9813060003230CC1001304100078
:1057E8001305011303461700330585001308E0026B
:1057F800230405EF93052000E31406D413060113D0
:105808003306B600930500032304B6EE1304240000
:105818009305011303462700338585009305E002AD
:105828002304B5EE93051400E31806D813060113F4
:105838003306B600930500032304B6EE13042400D0
:105848001306011303473700B30586001306E00269
:105858002384C5EE13061400E31C07DC13070113A9
:105868003307C70013060003130424002304C7EEFC
:105878006FF0DFE19387E6FF9306040013840700C7
:10588800130610019305810113050B002326D1008F
:10589800EF00C05B8326C100930C100113071B01A6
:1058A800E3D4DCBE93050002130620019306100121
:1058B80013071700B307E640B307FB00A30FB7FEB3
:1058C800B3878700E3C6F6FE6FF01FBC1309010318
:1058D800130B09006FF00FDE93840C006FF0DFBE2E
:1058E80013059000E35CC5D01308A00033450603F8
:1058F80093080113B388B800930524003385A900E1
:1059080003450500336606032384A8EE6FF01FCF16
:1059180013059000E358C5C61308A00033450603D5
:1059280093080113B388B800930524003385A900B0
:1059380003450500336606032384A8EE6FF09FC471
:1059480093059000E3D8E5D21305A000B345A7025C
:10595800130801133308C80013062400B385B900DF
:1059680083C505003367A7022304B8EE6FF09FD004
:105978009305900063D6C5021308A00033450603BB
:105988009305300013042000130310003385A90089
:105998000345050033660603230CA1006FF09FB78B
:1059A8009305200013041000130300006FF09FB646
:1059B80093F40701E38604DE930400006FF09F83ED
:1059C80083270C0013071B00130C4C002300FB005B
:1059D80013841C0083C71C00130B0700639E07CAAF
:1059E8006FF04FCD93060D006FF08FF633079B00D5
:1059F800130414008347F4FF130B1B00A30FFBFED3
:105A0800E318EBFE6FF0CFFE9387E6FF93860C005A
:105A1800938C07006FF05FCB93870500130806008F
:105A280013870600130305006396062897C8FFFF2F
:105A38009388083763F6C50E370701006378E60CCC
:105A48001307F00F3337C70013173700B356E600B4
:105A5800B388D80083C608003387E600930600029F
:105A6800B386E640638C0600B397D7003357E5004A
:105A78003318D600B365F7003313D5001355080162
:105A880033F7A502131608011356060193560301AE
:105A9800B3D5A50213170701B366D700B307B6023B
:105AA8001387050063FEF600B38606011387F5FF2A
:105AB80063E8060163F6F6001387E5FFB38606017F
:105AC800B386F640B3F7A602131303011353030179
:105AD800B3D6A6029397070133E36700B305D6024E
:105AE80013850600637CB300330368001385F6FF53
:105AF800636603016374B3001385E6FF1317070198
:105B08003367A700930500006F00400EB706000139
:105B180013070001E36CD6F2130780016FF01FF33F
:105B2800631606009306100033D8C602B7060100B4
:105B38006372D80C9306F00F63F406011307800014
:105B4800B356E800B388D80083C60800B386E600D9
:105B5800130700023307D7406318070AB3870741C2
:105B680093051000135608019318080193D80801EB
:105B78009356030133F7C702B3D7C70213170701B8
:105B8800B366D7003385F8021387070063FEA600C3
:105B9800B38606011387F7FF63E8060163F6A600DC
:105BA8001387E7FFB3860601B386A640B3F7C6029C
:105BB8001313030113530301B3D6C60293970701C6
:105BC80033E36700B388D80213850600637C1301AA
:105BD800330368001385F6FF6366030163741301DA
:105BE8001385E6FF131707013367A700130507009E
:105BF80067800000B706000113070001E362D8F4CC
:105C0800130780016FF0DFF33318E800B3D5D7002E
:105C18003313E500B356D50013550801B397E700D1
:105C280033F7A502B3E8F6009317080193D70701E5
:105C380013D60801B3D5A502131707013367C700A8
:105C4800B386B70213860500637ED70033070701C2
:105C58001386F5FF636807016376D7001386E5FFAF
:105C680033070701B306D74033F7A6029398080114
:105C780093D80801B3D6A60213170701B385D70234
:105C8800B36717011387060063FEB700B3870701E0
:105C98001387F6FF63E8070163F6B7001387E6FF8B
:105CA800B3870701B387B74093150601B3E5E5004D
:105CB8006FF05FEB63E6D5183707010063F4E6047D
:105CC8001308F00F3337D8001317370033D8E6001E
:105CD80097C5FFFF9385C50CB385050103C805006B
:105CE800930500023308E800B38505416396050271
:105CF80013071000E3ECF6EE3335C5001347150023
:105D08006FF0DFEEB705000113070001E3E0B6FC12
:105D1800130780016FF09FFB33570601B396B60057
:105D2800B366D70093DE060133D70701B378D703EC
:105D3800B397B700335805013363F800939706010A
:105D480093D70701135803013316B6003357D70307
:105D58009398080133E80801338FE702130E070010
:105D6800637EE8013308D800130EF7FF6368D80094
:105D78006376E801130EE7FF3308D8003308E841DB
:105D8800B378D8033358D80393980801B38E070320
:105D98009317030193D70701B3E7F8001307080027
:105DA80063FED701B387D7001307F8FF63E8D7006E
:105DB80063F6D7011307E8FFB387D700131E0E0158
:105DC800B387D741B70E01003367EE001388FEFF93
:105DD80033730701935807013378060113560601F8
:105DE800330E03033388080393560E013303C302AB
:105DF80033030301B3866600B388C80263F406015F
:105E0800B388D80113D60601B308160163E6170351
:105E1800E39A17CFB70701009387F7FFB3F6F600A9
:105E280093960601337EFE003315B500B386C6018E
:105E380093050000E37CD5DA1307F7FF6FF09FCCDA
:105E480093050000130700006FF05FDAB3C7A500E1
:105E580093F73700B308C50063920706930730002D
:105E680063FEC70493773500130705006398070698
:105E780013F6C8FF930706FE636CF708637CC70236
:105E8800938605009307070003A806009387470039
:105E98009386460023AE07FFE3E8C7FE9307F6FFA5
:105EA800B387E74093F7C7FF938747003307F700A7
:105EB800B385F500636817016780000013070500C4
:105EC800E37C15FF83C705001307170093851500AA
:105ED800A30FF7FEE36817FF6780000083C605007D
:105EE8001307170093773700A30FD7FE9385150084
:105EF800E38007F883C60500130717009377370078
:105F0800A30FD7FE93851500E39A07FC6FF05FF6A1
:105F180083A6050083A2450083AF850003AFC500B3
:105F280083AE050103AE450103A3850103A8C5019E
:105F3800938545022320D70083A6C5FF2322570057
:105F48002324F7012326E7012328D701232AC701A1
:105F5800232C6700232E070113074702232ED7FEA1
:105F6800E368F7FA6FF09FF11303F00013070500D9
:105F7800637EC3029377F7006390070A639205086C
:105F8800937606FF1376F600B386E6002320B70063
:105F98002322B7002324B7002326B70013070701DD
:105FA800E366D7FE6314060067800000B306C340AB
:105FB8009396260097020000B38656006780C600B5
:105FC8002307B700A306B7002306B700A305B70049
:105FD8002305B700A304B7002304B700A303B70041
:105FE8002303B700A302B7002302B700A301B70039
:105FF8002301B700A300B7002300B70067800000A3
:1060080093F5F50F93968500B3E5D50093960501B2
:10601800B3E5D5006FF0DFF69396270097020000EE
:10602800B386560093820000E78006FA9380020048
:10603800938707FF3307F7403306F600E378C3F684
:046048006FF0DFF323
:10604C0013010181371700002326117E2324817E42
:10605C002322917E2320217F232E317D232C417DF1
:10606C00232A517D2328617D2326717D2324817D64
:10607C002322917D2320A17D232EB17BB7F7FFFF37
:10608C00130101F8130707839387C77D3307270094
:10609C00138605002326A100B305F7001305E105BF
:1060AC00EFD0CFF813051000EFD01FE8231EA1008E
:1060BC0013052000EFD05FE7231FA100130530006C
:1060CC00EFD09FE62310A10213054000EFD0DFE5CF
:1060DC00232CA10213055000EFD01FE5630C057AA9
:1060EC00232EA1023717000013070783B7F7FFFF12
:1060FC0033072700B307F7002322F10083A7C77EDD
:10610C0063880738130710006394E7028327410064
:10611C008397077F639E070003274100B737153429
:10612C00938757412326F77E930760062318F77E43
:10613C008327C1033718000013080883330828008D
:10614C00B7F5FFFFB305B80013F7270013080106D6
:10615C0093F617003336E0002322B10023AA057F03
:10616C00231E010493F547003385C60063880500A0
:10617C001305150013150501135505011306007DB4
:10618C003355A60237F8FFFF13060000232AA1029D
:10619C0063980670631607746398057263980630EB
:1061AC006310073493F74700638607023717000024
:1061BC0013070783B7F7FFFF33072700B307F70071
:1061CC00032601038395C77E032541032322F10097
:1061DC00EFD04FEB83278103639A070A93071000D4
:1061EC00232CF102B7170000B7F4FFFF9387078346
:1061FC009384C47EB3872700B3849700032781035D
:10620C001304000093172700B387E7009397170038
:10621C00232CF102EFD04FD703298103232A010449
:10622C00232C01046300090493051000138504005A
:10623C00EFC08F8083554105EFD05FE8231AA1048E
:10624C009305F0FF13850400EFB01FFF8355410544
:10625C00EFD0DFE6231AA104630A046C13041400C4
:10626C00E31489FCEFD04FD6EFD08FD7EFD00FDAF5
:10627C00E30605F89307A000B3D7A7020327810311
:10628C0093871700B387E702232CF102EFD0CFCF0F
:10629C00B714000037F4FFFF93870483B3872700FC
:1062AC001305C47E3385A700EFC0DFB1EFD0CFD18B
:1062BC00EFD00FD393870483B3872700B38787006E
:1062CC00130B05000395C77E938B05009305000007
:1062DC002322F100EFE08FD78327410093050500BF
:1062EC000395E77EEFE08FD68327410093050500E9
:1062FC000395077FEFE08FD5930505000315410348
:10630C00EFE0CFD4B7870000938757B0930905000F
:10631C006306F56863F8A72037990000930729A056
:10632C006304F56AB7F700009387579F6312F5264D
:10633C0037150080B72A00001305055D138C7AFD14
:10634C0037EA0000EFE05FAC1309A9E323248101D5
:10635C00130A4A71B72C008083A68CEA930A0000BA
:10636C00930D0000638E066AB717000093870783AE
:10637C00B7F6FFFFB3872700B387D7002322F100BE
:10638C00371D00006F00400483274100B306B401A1
:10639C0093962600B386D700B306DD0083D6C6825B
:1063AC00B388560193871D001394080103A68CEA49
:1063BC0013540401939D0701931A040193DD0D01FD
:1063CC0093DA0A4163FCCD1C13944D0083274100E2
:1063DC00B304B40193942400B3849700B3049D00D8
:1063EC0083A6C4802396048293F616006386060265
:1063FC0003D6648263024603B717008093060A0033
:10640C0093850D001385C762EFE01FA083D6C4826D
:10641C00938616002396D48283274100B304B401DB
:10642C0093942400B3849700B3049D0083A6C48086
:10643C0013F626006308060203D6848263048603DF
:10644C0083268100B717008093850D001385C765DF
:10645C00EFE09F9B03D6C48283A6C480130616006C
:10646C002396C48293F64600E38006F2832741000C
:10647C003304B401131424003384870033048D00D7
:10648C000356A4826310260F8356C4826FF05FF10B
:10649C00832741008397077FE39C07C803274100AC
:1064AC00930760062318F77E6FF09FC8371700001C
:1064BC001307078333072700B7F7FFFFB307F7006E
:1064CC000396C77E83A5877F2322F100EFC00FBE02
:1064DC008327C1032320A10413F72700E30407CC6F
:1064EC00371700001307078333072700B7F7FFFFA1
:1064FC00B307F7002322F100032741008397E77EBF
:10650C00032541030316C77E8325C77F9397070195
:10651C0033E6C70093064104EFC05FE78327C1034E
:10652C006FF05FC8B72700009387278F6304F54C83
:10653C00B75A00009387FAEA631CF50437150080FC
:10654C001305C559138C8A6037E90000377A0000AF
:10655C00EFE09F8B1309495A23248101130A9AA750
:10656C006FF05FDFB71700809306090093850D006D
:10657C0013850769EFE05F898356C4829386160002
:10658C009396060193D606012316D4826FF05FE131
:10659C00370401001304F4FFB72C0080EFE08FD315
:1065AC00832541033304A400371500801305056CC3
:1065BC00EFE09F853715008093050B001305856D63
:1065CC00EFE09F8493850B0013050B00EFD00FA415
:1065DC0093050500371500801305056FEFE0DF828A
:1065EC001314040113050B0093850B0013540401C1
:1065FC00EFD0CFA16318053613050B0093850B0064
:10660C00EFD0CFA09307900063F4A73483A78CEA54
:10661C00832581033715008013050576B385F502B4
:10662C009314040193D40441EFE00FFEB7150080DE
:10663C00371500809385857713054578EFE0CFFCFF
:10664C00B7150080371500809385C5791305857BB8
:10665C00EFE08FFBB7150080371500809385057D23
:10666C001305857DEFE04FFA3715008093850900FF
:10667C001305057FEFE04FF98327C10393F617004D
:10668C006388060683A68CEA638406063717000027
:10669C0013070783B7F7FFFF33072700B307F7008C
:1066AC0013040000B72900802322F10037190000E1
:1066BC009317440003274100B38787009397270063
:1066CC00B307F700B307F90003D6678293050400FC
:1066DC001385C980EFE04FF31304140083A78CEAF1
:1066EC001314040113540401E364F4FC8327C10361
:1066FC0093F627006388060683A68CEA638A06282D
:10670C003717000013070783B7F7FFFF330727007E
:10671C00B307F70013040000B72900802322F1000F
:10672C00371900009317440003274100B3878700F3
:10673C0093972700B307F700B307F90003D68782B6
:10674C009305040013858982EFE00FEC1304140009
:10675C0083A78CEA1314040113540401E364F4FCBE
:10676C008327C10393F747006386070683A78CEA48
:10677C006382070C3717000013070783B7F7FFFF77
:10678C0033072700B307F70013040000B729008074
:10679C002322F1003719000093174400032741000E
:1067AC00B387870093972700B307F700B307F90067
:1067BC0003D6A7829305040013854984EFE0CFE448
:1067CC001304140083A78CEA13140401135404015A
:1067DC00E364F4FC3717000083A78CEA13070783E4
:1067EC0037F9FFFF3307270013040000372A008016
:1067FC0033092701B7190000638E07029317440071
:10680C00B387870093972700B307F900B387F90084
:10681C0003D647829305040013050A86EFE0CFDE0A
:10682C001304140083A78CEA1314040113540401F9
:10683C00E366F4FC638604106352900E37250080E7
:10684C001305858CEFE04FDC1305E105EFD04F828B
:10685C00130101088320C17E130500000324817EEF
:10686C008324417E0329017E8329C17D032A817DF6
:10687C00832A417D032B017D832BC17C032C817CDE
:10688C00832C417C032D017C832DC17B1301017F63
:10689C006780000093077000232EF1026FF09F8435
:1068AC00371600001306068333062600330606014E
:1068BC00130801062322C100232C067F13061000A7
:1068CC00E30C078C6F00C0013306A602930501068A
:1068DC003386C5002328C102E384068C6FF01FBDEC
:1068EC003308A60213030106B7F8FFFF13061600C0
:1068FC001316060113560601330803013713000063
:10690C001303038333032300B30813012322110160
:10691C0023AE087FE38405886FF01FFB37250080CA
:10692C001305C58DEFE04FCE6FF01FF2231BA104B2
:10693C0093071000E308F992130410006FF0DF8E38
:10694C00372500801305C587EFE00FCC6FF0DFEF24
:10695C003715008013050572EFE00FCB13041400FC
:10696C006FF0DFCA83A78CEA8324810393850B0025
:10697C0013050B00B384F402EFC05FE9B3D5A40296
:10698C003715008013058570EFE00FC86FF0DFC678
:10699C0093F74700E38007E46FF0DFE937150080D9
:1069AC00B71A000013050557138C9A1937490000C4
:1069BC00373A0000EFE04FC51309F99B23248101FE
:1069CC00130A0A346FF01F9937150080B7CA0000FC
:1069DC0013050554138C2AE53769000037DA0000DB
:1069EC00EFE08FC2130979E423248101130A0A4BC7
:1069FC006FF05F963715008013050560EFE0CFC090
:106A0C00379900009307707437EA0000130949D8CE
:106A1C002324F100130C7074130A1A3C6FF09F932B
:086A2C00130400006FF09FB796
:040000058000000077
:00000001FF
