:0200000480007A
:10000000130E1000DB1100006396014A130E20004E
:10001000371206031302C290B700020193804030EA
:100020003701040213018160DB9120006394414891
:10003000130E300037F2F2F31302021F9300F0FFA9
:100040003701030413011120DB9120006394414622
:10005000130E4000DB110002639E0144130E50009A
:10006000370202011302423037010402130181609A
:10007000B700020193804030DB111102639C4142C2
:10008000130E600037121415130222311301F0FF12
:10009000B700030493801020DB912002639C414051
:1000A000130E7000DB11000463960140130E8000F4
:1000B000370202011302423037010402130181604A
:1000C000B700020193804030DB1111046394413E7C
:1000D000130E900037020304130212201301F0FFE5
:1000E000B700030493801020DB9120046394413C0B
:1000F000130EA000DB110006639E013A130EB00040
:1001000037020201130282303701040213018160B9
:10011000B700020193804030DB111106639C413827
:10012000130EC0001302F0FF1301F0FFB700030429
:1001300093801020DB912006639E4136130ED00081
:10014000DB11000863980136130EE0003702040249
:10015000130282603701040213018160B7000201BB
:1001600093804030DB11110863964134130EF00088
:100170001302F0FF1301F0FFB70003049380102077
:10018000DB91200863984132130E0001DB11000A55
:1001900063920132130E100137020402130242600F
:1001A0003701040213018160B700020193804030DF
:1001B000DB11110A63904130130E20013702030452
:1001C000130212201301F0FFB700030493801020E4
:1001D000DB91200A6390412E130E3001DB11000CDD
:1001E000639A012C130E40013772717113020207DA
:1001F0001301F0FFB700030493801020DB91200C63
:10020000639A412A130E500137727172130202175A
:1002100037F1F0F01301010FB700030493801020B1
:10022000DB91200C63984128130E6001DB11000E56
:1002300063920128130E700137F2F1F11302020FDD
:100240001301F0FFB700030493801020DB91200E10
:1002500063924126130E800137F2F1F21302021F5E
:1002600037F1F0F01301010FB70003049380102061
:10027000DB91200E63904124130E9001DB1100806E
:10028000639A0122130EA00113020000B7000201BD
:100290009380403013010000DB912080639C41205B
:1002A000130EB0011302C003B70002019380403067
:1002B0003701040213018160DB912080639C411EA1
:1002C000130EC0011302A005B70000019380F0FFD8
:1002D0003701010013013120DB111180639C411CA7
:1002E000130ED001130280709300F0FF1301F0FF92
:1002F000DB1111806390411C130EE001DB110082C1
:10030000639A011A130EF00113020000B7000201F4
:100310009380403013010000DB912082639C4118E0
:10032000130E00021302C0FFB70002019380403099
:100330003701040213018160DB912082639C411626
:10034000130E10021302A0FF9300F0FF370101000B
:1003500013013120DB111182639E4114130E200220
:10036000130280009300F0FF1301F0FFDB111182F4
:1003700063924114130E300293010000DB110084DC
:10038000639A0112130E4002930100001302000051
:10039000B70002019380403013010000DB912084FC
:1003A000639A4110130E5002B70123003702230055
:1003B0001302C203B70002019380403037010402E8
:1003C00013018160DB9120846396410E130E60025D
:1003D000B70100FF370200FF1302A205B7000001BA
:1003E0009380F0FF3701010013013120DB111184EC
:1003F0006392410C130E7002B701FFFF3702FFFF3B
:10040000130282709300F0FF1301F0FFDB111184DF
:100410006392410A130E800293010000DB110086F3
:10042000639A0108130E9002B70100FF370200FF24
:10043000B70002019380403013010000DB91208659
:10044000639A4106130EA002B70100FF370200FFB6
:100450001302C2FFB700020193804030370104024B
:1004600013018160DB91208663964104130EB00274
:10047000B70100FF370200FF1302A2FF9300F0FF55
:100480003701010013013120DB1111866394410211
:10049000130EC002B701FFFF3702FFFF13028200F5
:1004A0009300F0FF1301F0FFDB111186639441000C
:1004B0006F000001370110F0130141F22320C10148
:1004C000370110F0130101F2232001001300000096
:1004D00013000000130000001300000013000000D0
:0404E0001300000005
:040000058000000077
:00000001FF
